{
  "contractName": "Whitelist",
  "abi": [
    {
      "anonymous": false,
      "inputs": [
        {
          "indexed": false,
          "internalType": "address",
          "name": "_address",
          "type": "address"
        }
      ],
      "name": "Whitelisted",
      "type": "event"
    },
    {
      "inputs": [
        {
          "internalType": "address",
          "name": "",
          "type": "address"
        }
      ],
      "name": "_whitelist",
      "outputs": [
        {
          "internalType": "bool",
          "name": "",
          "type": "bool"
        }
      ],
      "stateMutability": "view",
      "type": "function",
      "constant": true
    },
    {
      "inputs": [
        {
          "internalType": "uint256",
          "name": "",
          "type": "uint256"
        }
      ],
      "name": "addresses",
      "outputs": [
        {
          "internalType": "address",
          "name": "",
          "type": "address"
        }
      ],
      "stateMutability": "view",
      "type": "function",
      "constant": true
    },
    {
      "inputs": [
        {
          "internalType": "address",
          "name": "_address",
          "type": "address"
        }
      ],
      "name": "whitelist",
      "outputs": [],
      "stateMutability": "nonpayable",
      "type": "function"
    },
    {
      "inputs": [],
      "name": "getAddresses",
      "outputs": [
        {
          "internalType": "address[]",
          "name": "",
          "type": "address[]"
        }
      ],
      "stateMutability": "view",
      "type": "function",
      "constant": true
    }
  ],
  "bytecode": "0x608060405234801561001057600080fd5b506104c5806100206000396000f3fe608060405234801561001057600080fd5b506004361061004c5760003560e01c80639b19251a14610051578063a39fac1214610095578063cfdb63ac146100f4578063edf26d9b14610150575b600080fd5b6100936004803603602081101561006757600080fd5b81019080803573ffffffffffffffffffffffffffffffffffffffff1690602001909291905050506101be565b005b61009d610380565b6040518080602001828103825283818151815260200191508051906020019060200280838360005b838110156100e05780820151818401526020810190506100c5565b505050509050019250505060405180910390f35b6101366004803603602081101561010a57600080fd5b81019080803573ffffffffffffffffffffffffffffffffffffffff16906020019092919050505061040e565b604051808215151515815260200191505060405180910390f35b61017c6004803603602081101561016657600080fd5b810190808035906020019092919050505061042e565b604051808273ffffffffffffffffffffffffffffffffffffffff1673ffffffffffffffffffffffffffffffffffffffff16815260200191505060405180910390f35b6000808273ffffffffffffffffffffffffffffffffffffffff1673ffffffffffffffffffffffffffffffffffffffff16815260200190815260200160002060009054906101000a900460ff1615610260576040517f08c379a000000000000000000000000000000000000000000000000000000000815260040180806020018281038252602581526020018061046b6025913960400191505060405180910390fd5b60016000808373ffffffffffffffffffffffffffffffffffffffff1673ffffffffffffffffffffffffffffffffffffffff16815260200190815260200160002060006101000a81548160ff0219169083151502179055506001819080600181540180825580915050600190039060005260206000200160009091909190916101000a81548173ffffffffffffffffffffffffffffffffffffffff021916908373ffffffffffffffffffffffffffffffffffffffff1602179055507faab7954e9d246b167ef88aeddad35209ca2489d95a8aeb59e288d9b19fae5a5481604051808273ffffffffffffffffffffffffffffffffffffffff1673ffffffffffffffffffffffffffffffffffffffff16815260200191505060405180910390a150565b6060600180548060200260200160405190810160405280929190818152602001828054801561040457602002820191906000526020600020905b8160009054906101000a900473ffffffffffffffffffffffffffffffffffffffff1673ffffffffffffffffffffffffffffffffffffffff16815260200190600101908083116103ba575b5050505050905090565b60006020528060005260406000206000915054906101000a900460ff1681565b6001818154811061043b57fe5b906000526020600020016000915054906101000a900473ffffffffffffffffffffffffffffffffffffffff168156fe54686973206164647265737320697320616c72656164792077686974656c69737465642021a2646970667358221220593ee5589644c21b7a34cea725e9cd1eef027076c207d84f79e6919e8a4bebbf64736f6c634300060b0033",
  "immutableReferences": {},
  "source": "// SPDX-License-Identifier: MIT\r\npragma solidity 0.6.11;\r\n\r\ncontract Whitelist {\r\n   mapping(address=> bool) public _whitelist;\r\n   address[] public addresses;\r\n   event Whitelisted(address _address);\r\n\r\n   function whitelist(address _address) public {\r\n       require(!_whitelist[_address], \"This address is already whitelisted !\");\r\n       _whitelist[_address] = true;\r\n       addresses.push(_address);\r\n       emit Whitelisted(_address);\r\n   }\r\n\r\n   function getAddresses() public view returns(address[] memory){\r\n       return addresses;\r\n   }\r\n}",
  "sourcePath": "C:/appli.crypto/alyra-challenges/whitelist-react-box/contracts/Whitelist.sol",
  "compiler": {
    "name": "solc",
    "version": "0.6.11+commit.5ef660b1.Emscripten.clang"
  },
  "schemaVersion": "3.4.1",
  "updatedAt": "2021-06-11T05:30:14.954Z",
  "networkType": "ethereum",
  "devdoc": {
    "kind": "dev",
    "methods": {},
    "version": 1
  },
  "userdoc": {
    "kind": "user",
    "methods": {},
    "version": 1
  }
}