{
  "contractName": "Voting",
  "abi": [
    {
      "anonymous": false,
      "inputs": [
        {
          "indexed": true,
          "internalType": "address",
          "name": "previousOwner",
          "type": "address"
        },
        {
          "indexed": true,
          "internalType": "address",
          "name": "newOwner",
          "type": "address"
        }
      ],
      "name": "OwnershipTransferred",
      "type": "event"
    },
    {
      "anonymous": false,
      "inputs": [
        {
          "indexed": false,
          "internalType": "uint256",
          "name": "proposalId",
          "type": "uint256"
        }
      ],
      "name": "ProposalRegistered",
      "type": "event"
    },
    {
      "anonymous": false,
      "inputs": [],
      "name": "ProposalsRegistrationEnded",
      "type": "event"
    },
    {
      "anonymous": false,
      "inputs": [],
      "name": "ProposalsRegistrationStarted",
      "type": "event"
    },
    {
      "anonymous": false,
      "inputs": [
        {
          "indexed": false,
          "internalType": "address",
          "name": "voter",
          "type": "address"
        },
        {
          "indexed": false,
          "internalType": "uint256",
          "name": "proposalId",
          "type": "uint256"
        }
      ],
      "name": "Voted",
      "type": "event"
    },
    {
      "anonymous": false,
      "inputs": [],
      "name": "VotesTallied",
      "type": "event"
    },
    {
      "anonymous": false,
      "inputs": [],
      "name": "VotingSessionEnded",
      "type": "event"
    },
    {
      "anonymous": false,
      "inputs": [],
      "name": "VotingSessionStarted",
      "type": "event"
    },
    {
      "anonymous": false,
      "inputs": [
        {
          "indexed": false,
          "internalType": "enum Voting.WorkflowStatus",
          "name": "previousStatus",
          "type": "uint8"
        },
        {
          "indexed": false,
          "internalType": "enum Voting.WorkflowStatus",
          "name": "newStatus",
          "type": "uint8"
        }
      ],
      "name": "WorkflowStatusChange",
      "type": "event"
    },
    {
      "inputs": [],
      "name": "owner",
      "outputs": [
        {
          "internalType": "address",
          "name": "",
          "type": "address"
        }
      ],
      "stateMutability": "view",
      "type": "function",
      "constant": true
    },
    {
      "inputs": [],
      "name": "renounceOwnership",
      "outputs": [],
      "stateMutability": "nonpayable",
      "type": "function"
    },
    {
      "inputs": [
        {
          "internalType": "address",
          "name": "newOwner",
          "type": "address"
        }
      ],
      "name": "transferOwnership",
      "outputs": [],
      "stateMutability": "nonpayable",
      "type": "function"
    },
    {
      "inputs": [],
      "name": "winningProposal",
      "outputs": [
        {
          "internalType": "string",
          "name": "description",
          "type": "string"
        },
        {
          "internalType": "uint256",
          "name": "voteCount",
          "type": "uint256"
        }
      ],
      "stateMutability": "view",
      "type": "function",
      "constant": true
    },
    {
      "inputs": [],
      "name": "resetVote",
      "outputs": [],
      "stateMutability": "nonpayable",
      "type": "function"
    },
    {
      "inputs": [
        {
          "internalType": "address",
          "name": "_address",
          "type": "address"
        }
      ],
      "name": "registerVoters",
      "outputs": [],
      "stateMutability": "nonpayable",
      "type": "function"
    },
    {
      "inputs": [],
      "name": "getVotersAdresses",
      "outputs": [
        {
          "internalType": "address[]",
          "name": "",
          "type": "address[]"
        }
      ],
      "stateMutability": "view",
      "type": "function",
      "constant": true
    },
    {
      "inputs": [],
      "name": "startProposalsRegistration",
      "outputs": [],
      "stateMutability": "nonpayable",
      "type": "function"
    },
    {
      "inputs": [
        {
          "internalType": "string",
          "name": "proposalDescription",
          "type": "string"
        }
      ],
      "name": "registerProposal",
      "outputs": [],
      "stateMutability": "nonpayable",
      "type": "function"
    },
    {
      "inputs": [],
      "name": "getProposals",
      "outputs": [
        {
          "components": [
            {
              "internalType": "string",
              "name": "description",
              "type": "string"
            },
            {
              "internalType": "uint256",
              "name": "voteCount",
              "type": "uint256"
            }
          ],
          "internalType": "struct Voting.Proposal[]",
          "name": "",
          "type": "tuple[]"
        }
      ],
      "stateMutability": "view",
      "type": "function",
      "constant": true
    },
    {
      "inputs": [],
      "name": "stopProposalsRegistration",
      "outputs": [],
      "stateMutability": "nonpayable",
      "type": "function"
    },
    {
      "inputs": [],
      "name": "startVotingSession",
      "outputs": [],
      "stateMutability": "nonpayable",
      "type": "function"
    },
    {
      "inputs": [
        {
          "internalType": "uint256",
          "name": "_proposalId",
          "type": "uint256"
        }
      ],
      "name": "voteForProposal",
      "outputs": [],
      "stateMutability": "nonpayable",
      "type": "function"
    },
    {
      "inputs": [],
      "name": "stopVotingSession",
      "outputs": [],
      "stateMutability": "nonpayable",
      "type": "function"
    },
    {
      "inputs": [],
      "name": "countVotes",
      "outputs": [
        {
          "internalType": "string",
          "name": "",
          "type": "string"
        }
      ],
      "stateMutability": "nonpayable",
      "type": "function"
    },
    {
      "inputs": [
        {
          "internalType": "address",
          "name": "voterAddress",
          "type": "address"
        }
      ],
      "name": "getVote",
      "outputs": [
        {
          "internalType": "uint256",
          "name": "",
          "type": "uint256"
        }
      ],
      "stateMutability": "view",
      "type": "function",
      "constant": true
    },
    {
      "inputs": [],
      "name": "getCurrentWorkflowStatus",
      "outputs": [
        {
          "internalType": "enum Voting.WorkflowStatus",
          "name": "",
          "type": "uint8"
        }
      ],
      "stateMutability": "view",
      "type": "function",
      "constant": true
    }
  ],
  "bytecode": "0x608060405260008060146101000a81548160ff0219169083600581111561002257fe5b021790555034801561003357600080fd5b50600061004d6100f0640100000000026401000000009004565b9050806000806101000a81548173ffffffffffffffffffffffffffffffffffffffff021916908373ffffffffffffffffffffffffffffffffffffffff1602179055508073ffffffffffffffffffffffffffffffffffffffff16600073ffffffffffffffffffffffffffffffffffffffff167f8be0079c531659141344cd1fd0a4f28419497f9722a3daafe3b4186f6b6457e060405160405180910390a3506100f8565b600033905090565b6129c680620001086000396000f3fe608060405234801561001057600080fd5b5060043610610128576000357c0100000000000000000000000000000000000000000000000000000000900480638d337b81116100bf578063bd0434d41161008e578063bd0434d414610254578063e09b8c7914610272578063ed8a16081461027c578063ee74c67814610298578063f2fde38b146102a257610128565b80638d337b81146101ca5780638da5cb5b146101fa578063af7c41a014610218578063b647990a1461023657610128565b806353302887116100fb5780635330288714610179578063609ff1bd1461018357806362564c48146101a2578063715018a6146101c057610128565b8063045c6ce01461012d57806317a0ad8e146101495780632f95355b14610153578063329a8cfa1461016f575b600080fd5b61014760048036038101906101429190611b95565b6102be565b005b610151610551565b005b61016d60048036038101906101689190611b54565b610687565b005b61017761086f565b005b61018161094f565b005b61018b610a85565b604051610199929190612508565b60405180910390f35b6101aa610b2f565b6040516101b79190612480565b60405180910390f35b6101c8610c3a565b005b6101e460048036038101906101df9190611b2b565b610d8f565b6040516101f19190612758565b60405180910390f35b610202610eef565b60405161020f919061241a565b60405180910390f35b610220610f18565b60405161022d91906124a2565b60405180910390f35b61023e610f2e565b60405161024b91906124e6565b60405180910390f35b61025c611107565b604051610269919061245e565b60405180910390f35b61027a611195565b005b61029660048036038101906102919190611b2b565b611310565b005b6102a06115c4565b005b6102bc60048036038101906102b79190611b2b565b6116fa565b005b600560003373ffffffffffffffffffffffffffffffffffffffff1673ffffffffffffffffffffffffffffffffffffffff16815260200190815260200160002060000160009054906101000a900460ff1661034d576040517f08c379a0000000000000000000000000000000000000000000000000000000008152600401610344906125f8565b60405180910390fd5b600560003373ffffffffffffffffffffffffffffffffffffffff1673ffffffffffffffffffffffffffffffffffffffff16815260200190815260200160002060000160019054906101000a900460ff16156103dd576040517f08c379a00000000000000000000000000000000000000000000000000000000081526004016103d490612678565b60405180910390fd5b600360058111156103ea57fe5b600060149054906101000a900460ff16600581111561040557fe5b14610445576040517f08c379a000000000000000000000000000000000000000000000000000000000815260040161043c90612638565b60405180910390fd5b6001600560003373ffffffffffffffffffffffffffffffffffffffff1673ffffffffffffffffffffffffffffffffffffffff16815260200190815260200160002060000160016101000a81548160ff02191690831515021790555080600560003373ffffffffffffffffffffffffffffffffffffffff1673ffffffffffffffffffffffffffffffffffffffff16815260200190815260200160002060010181905550600381815481106104f457fe5b9060005260206000209060020201600101600081548092919060010191905055507f4d99b957a2bc29a30ebd96a7be8e68fe50a3c701db28a91436490b7d53870ca43382604051610546929190612435565b60405180910390a150565b6105596118be565b73ffffffffffffffffffffffffffffffffffffffff166000809054906101000a900473ffffffffffffffffffffffffffffffffffffffff1673ffffffffffffffffffffffffffffffffffffffff16146105e7576040517f08c379a00000000000000000000000000000000000000000000000000000000081526004016105de90612718565b60405180910390fd5b600360058111156105f457fe5b600060149054906101000a900460ff16600581111561060f57fe5b1461064f576040517f08c379a0000000000000000000000000000000000000000000000000000000008152600401610646906126b8565b60405180910390fd5b61065960046118c6565b7fc379d349a6301baf50fb2f98d829f4ae10b1cdb7c66f4e4d8117302df7b8cd4c60405160405180910390a1565b6064600380549050106106cf576040517f08c379a00000000000000000000000000000000000000000000000000000000081526004016106c6906126f8565b60405180910390fd5b600560003373ffffffffffffffffffffffffffffffffffffffff1673ffffffffffffffffffffffffffffffffffffffff16815260200190815260200160002060000160009054906101000a900460ff1661075e576040517f08c379a0000000000000000000000000000000000000000000000000000000008152600401610755906125f8565b60405180910390fd5b6001600581111561076b57fe5b600060149054906101000a900460ff16600581111561078657fe5b146107c6576040517f08c379a00000000000000000000000000000000000000000000000000000000081526004016107bd90612558565b60405180910390fd5b60036040518060400160405280838152602001600081525090806001815401808255809150506001900390600052602060002090600202016000909190919091506000820151816000019080519060200190610823929190611939565b506020820151816001015550507f92e393e9b54e2f801d3ea4beb0c5e71a21cc34a5d34b77d0fb8a3aa1650dc18f6003805490506040516108649190612758565b60405180910390a150565b6108776118be565b73ffffffffffffffffffffffffffffffffffffffff166000809054906101000a900473ffffffffffffffffffffffffffffffffffffffff1673ffffffffffffffffffffffffffffffffffffffff1614610905576040517f08c379a00000000000000000000000000000000000000000000000000000000081526004016108fc90612718565b60405180910390fd5b60008060146101000a81548160ff0219169083600581111561092357fe5b0217905550600060068190555060016000808201600061094391906119b9565b60018201600090555050565b6109576118be565b73ffffffffffffffffffffffffffffffffffffffff166000809054906101000a900473ffffffffffffffffffffffffffffffffffffffff1673ffffffffffffffffffffffffffffffffffffffff16146109e5576040517f08c379a00000000000000000000000000000000000000000000000000000000081526004016109dc90612718565b60405180910390fd5b600160058111156109f257fe5b600060149054906101000a900460ff166005811115610a0d57fe5b14610a4d576040517f08c379a0000000000000000000000000000000000000000000000000000000008152600401610a4490612738565b60405180910390fd5b610a5760026118c6565b7f240cb87b2e4df4c318e72bd714d45a9cad60249e883ff56b1fffd83a4595a8fa60405160405180910390a1565b6001806000018054600181600116156101000203166002900480601f016020809104026020016040519081016040528092919081815260200182805460018160011615610100020316600290048015610b1f5780601f10610af457610100808354040283529160200191610b1f565b820191906000526020600020905b815481529060010190602001808311610b0257829003601f168201915b5050505050908060010154905082565b60606003805480602002602001604051908101604052809291908181526020016000905b82821015610c315783829060005260206000209060020201604051806040016040529081600082018054600181600116156101000203166002900480601f016020809104026020016040519081016040528092919081815260200182805460018160011615610100020316600290048015610c0f5780601f10610be457610100808354040283529160200191610c0f565b820191906000526020600020905b815481529060010190602001808311610bf257829003601f168201915b5050505050815260200160018201548152505081526020019060010190610b53565b50505050905090565b610c426118be565b73ffffffffffffffffffffffffffffffffffffffff166000809054906101000a900473ffffffffffffffffffffffffffffffffffffffff1673ffffffffffffffffffffffffffffffffffffffff1614610cd0576040517f08c379a0000000000000000000000000000000000000000000000000000000008152600401610cc790612718565b60405180910390fd5b600073ffffffffffffffffffffffffffffffffffffffff166000809054906101000a900473ffffffffffffffffffffffffffffffffffffffff1673ffffffffffffffffffffffffffffffffffffffff167f8be0079c531659141344cd1fd0a4f28419497f9722a3daafe3b4186f6b6457e060405160405180910390a360008060006101000a81548173ffffffffffffffffffffffffffffffffffffffff021916908373ffffffffffffffffffffffffffffffffffffffff160217905550565b6000600560003373ffffffffffffffffffffffffffffffffffffffff1673ffffffffffffffffffffffffffffffffffffffff16815260200190815260200160002060000160009054906101000a900460ff16610e20576040517f08c379a0000000000000000000000000000000000000000000000000000000008152600401610e1790612658565b60405180910390fd5b6000600560008473ffffffffffffffffffffffffffffffffffffffff1673ffffffffffffffffffffffffffffffffffffffff1681526020019081526020016000206001015411610ea5576040517f08c379a0000000000000000000000000000000000000000000000000000000008152600401610e9c906126d8565b60405180910390fd5b600560003373ffffffffffffffffffffffffffffffffffffffff1673ffffffffffffffffffffffffffffffffffffffff168152602001908152602001600020600101549050919050565b60008060009054906101000a900473ffffffffffffffffffffffffffffffffffffffff16905090565b60008060149054906101000a900460ff16905090565b6060610f386118be565b73ffffffffffffffffffffffffffffffffffffffff166000809054906101000a900473ffffffffffffffffffffffffffffffffffffffff1673ffffffffffffffffffffffffffffffffffffffff1614610fc6576040517f08c379a0000000000000000000000000000000000000000000000000000000008152600401610fbd90612718565b60405180910390fd5b60046005811115610fd357fe5b600060149054906101000a900460ff166005811115610fee57fe5b1461102e576040517f08c379a000000000000000000000000000000000000000000000000000000000815260040161102590612618565b60405180910390fd5b600080600090505b60038054905081101561107a57816003828154811061105157fe5b906000526020600020906002020160010154111561106d578091505b8080600101915050611036565b506003818154811061108857fe5b90600052602060002090600202016001600082018160000190805460018160011615610100020316600290046110bf929190611a01565b50600182015481600101559050506110d760056118c6565b7f0e5e95ff8725ab3e7a4b6b59998a4c344c2aa8d1485f5e60cb7f337768e6134760405160405180910390a15090565b6060600480548060200260200160405190810160405280929190818152602001828054801561118b57602002820191906000526020600020905b8160009054906101000a900473ffffffffffffffffffffffffffffffffffffffff1673ffffffffffffffffffffffffffffffffffffffff1681526020019060010190808311611141575b5050505050905090565b61119d6118be565b73ffffffffffffffffffffffffffffffffffffffff166000809054906101000a900473ffffffffffffffffffffffffffffffffffffffff1673ffffffffffffffffffffffffffffffffffffffff161461122b576040517f08c379a000000000000000000000000000000000000000000000000000000000815260040161122290612718565b60405180910390fd5b6000600581111561123857fe5b600060149054906101000a900460ff16600581111561125357fe5b14611293576040517f08c379a000000000000000000000000000000000000000000000000000000000815260040161128a906125d8565b60405180910390fd5b6002600654116112d8576040517f08c379a00000000000000000000000000000000000000000000000000000000081526004016112cf90612698565b60405180910390fd5b6112e260016118c6565b7f344c25562921d075a298d34b6dd1fd00d36ff293974539dfd4a8c625d9f0064c60405160405180910390a1565b6113186118be565b73ffffffffffffffffffffffffffffffffffffffff166000809054906101000a900473ffffffffffffffffffffffffffffffffffffffff1673ffffffffffffffffffffffffffffffffffffffff16146113a6576040517f08c379a000000000000000000000000000000000000000000000000000000000815260040161139d90612718565b60405180910390fd5b600560008273ffffffffffffffffffffffffffffffffffffffff1673ffffffffffffffffffffffffffffffffffffffff16815260200190815260200160002060000160009054906101000a900460ff1615611436576040517f08c379a000000000000000000000000000000000000000000000000000000000815260040161142d90612538565b60405180910390fd5b6000600581111561144357fe5b600060149054906101000a900460ff16600581111561145e57fe5b1461149e576040517f08c379a000000000000000000000000000000000000000000000000000000000815260040161149590612578565b60405180910390fd5b6004819080600181540180825580915050600190039060005260206000200160009091909190916101000a81548173ffffffffffffffffffffffffffffffffffffffff021916908373ffffffffffffffffffffffffffffffffffffffff16021790555060405180606001604052806001151581526020016000151581526020016000815250600560008373ffffffffffffffffffffffffffffffffffffffff1673ffffffffffffffffffffffffffffffffffffffff16815260200190815260200160002060008201518160000160006101000a81548160ff02191690831515021790555060208201518160000160016101000a81548160ff0219169083151502179055506040820151816001015590505060066000815480929190600101919050555050565b6115cc6118be565b73ffffffffffffffffffffffffffffffffffffffff166000809054906101000a900473ffffffffffffffffffffffffffffffffffffffff1673ffffffffffffffffffffffffffffffffffffffff161461165a576040517f08c379a000000000000000000000000000000000000000000000000000000000815260040161165190612718565b60405180910390fd5b6002600581111561166757fe5b600060149054906101000a900460ff16600581111561168257fe5b146116c2576040517f08c379a00000000000000000000000000000000000000000000000000000000081526004016116b9906125b8565b60405180910390fd5b6116cc60036118c6565b7f1b8e19a458c1bcd88553332c518cc5c4e2d5793e712ee766d4f1c14f672ef1f560405160405180910390a1565b6117026118be565b73ffffffffffffffffffffffffffffffffffffffff166000809054906101000a900473ffffffffffffffffffffffffffffffffffffffff1673ffffffffffffffffffffffffffffffffffffffff1614611790576040517f08c379a000000000000000000000000000000000000000000000000000000000815260040161178790612718565b60405180910390fd5b600073ffffffffffffffffffffffffffffffffffffffff168173ffffffffffffffffffffffffffffffffffffffff161415611800576040517f08c379a00000000000000000000000000000000000000000000000000000000081526004016117f790612598565b60405180910390fd5b8073ffffffffffffffffffffffffffffffffffffffff166000809054906101000a900473ffffffffffffffffffffffffffffffffffffffff1673ffffffffffffffffffffffffffffffffffffffff167f8be0079c531659141344cd1fd0a4f28419497f9722a3daafe3b4186f6b6457e060405160405180910390a3806000806101000a81548173ffffffffffffffffffffffffffffffffffffffff021916908373ffffffffffffffffffffffffffffffffffffffff16021790555050565b600033905090565b60008060149054906101000a900460ff16905081600060146101000a81548160ff021916908360058111156118f757fe5b02179055507f0a97a4ee45751e2abf3e4fc8946939630b11b371ea8ae39ccdc3056e98f5cc3f818360405161192d9291906124bd565b60405180910390a15050565b828054600181600116156101000203166002900490600052602060002090601f016020900481019282601f1061197a57805160ff19168380011785556119a8565b828001600101855582156119a8579182015b828111156119a757825182559160200191906001019061198c565b5b5090506119b59190611a88565b5090565b50805460018160011615610100020316600290046000825580601f106119df57506119fe565b601f0160209004906000526020600020908101906119fd9190611a88565b5b50565b828054600181600116156101000203166002900490600052602060002090601f016020900481019282601f10611a3a5780548555611a77565b82800160010185558215611a7757600052602060002091601f016020900482015b82811115611a76578254825591600101919060010190611a5b565b5b509050611a849190611a88565b5090565b611aaa91905b80821115611aa6576000816000905550600101611a8e565b5090565b90565b600081359050611abc81612962565b92915050565b600082601f830112611ad357600080fd5b8135611ae6611ae1826127a0565b612773565b91508082526020830160208301858383011115611b0257600080fd5b611b0d838284612902565b50505092915050565b600081359050611b2581612979565b92915050565b600060208284031215611b3d57600080fd5b6000611b4b84828501611aad565b91505092915050565b600060208284031215611b6657600080fd5b600082013567ffffffffffffffff811115611b8057600080fd5b611b8c84828501611ac2565b91505092915050565b600060208284031215611ba757600080fd5b6000611bb584828501611b16565b91505092915050565b6000611bca8383611bf9565b60208301905092915050565b6000611be283836123bf565b905092915050565b611bf3816128ba565b82525050565b611c028161286b565b82525050565b611c118161286b565b82525050565b6000611c22826127ec565b611c2c8185612827565b9350611c37836127cc565b8060005b83811015611c68578151611c4f8882611bbe565b9750611c5a8361280d565b925050600181019050611c3b565b5085935050505092915050565b6000611c80826127f7565b611c8a8185612838565b935083602082028501611c9c856127dc565b8060005b85811015611cd85784840389528151611cb98582611bd6565b9450611cc48361281a565b925060208a01995050600181019050611ca0565b50829750879550505050505092915050565b611cf3816128cc565b82525050565b6000611d0482612802565b611d0e8185612849565b9350611d1e818560208601612911565b611d2781612944565b840191505092915050565b6000611d3d82612802565b611d47818561285a565b9350611d57818560208601612911565b611d6081612944565b840191505092915050565b6000611d7860228361285a565b91507f546865206164647265737320697320616c72656164792072656769737465726560008301527f64210000000000000000000000000000000000000000000000000000000000006020830152604082019050919050565b6000611dde60328361285a565b91507f50726f706f73616c7320526567697374726174696f6e20686173206e6f74207360008301527f746172746564206f7220697320656e64656400000000000000000000000000006020830152604082019050919050565b6000611e44601b8361285a565b91507f546f6f206c61746520746f20726567697374657220766f7465727300000000006000830152602082019050919050565b6000611e8460268361285a565b91507f4f776e61626c653a206e6577206f776e657220697320746865207a65726f206160008301527f64647265737300000000000000000000000000000000000000000000000000006020830152604082019050919050565b6000611eea604e8361285a565b91507f596f752063616e206f6e6c7920737461727420566f74696e672053657373696f60008301527f6e206f6e63652050726f706f73616c7320526567697374726174696f6e20686160208301527f73206265656e2073746f707065640000000000000000000000000000000000006040830152606082019050919050565b6000611f76602e8361285a565b91507f596f752063616e206f6e6c792073746172742050726f706f73616c732052656760008301527f697374726174696f6e206f6e63650000000000000000000000000000000000006020830152604082019050919050565b6000611fdc60288361285a565b91507f536f72727920796f752063616e277420706172746963697061746520746f207460008301527f68697320766f74650000000000000000000000000000000000000000000000006020830152604082019050919050565b600061204260248361285a565b91507f596f752073686f756c642073746f7020566f74696e672053657373696f6e206660008301527f69727374000000000000000000000000000000000000000000000000000000006020830152604082019050919050565b60006120a8602a8361285a565b91507f566f74696e672053657373696f6e20686173206e6f742073746172746564206f60008301527f7220697320656e646564000000000000000000000000000000000000000000006020830152604082019050919050565b600061210e60198361285a565b91507f536f72727920796f75277265206e6f74206120766f74657227000000000000006000830152602082019050919050565b600061214e60248361285a565b91507f536f72727920796f752063616e6e6f7420766f7465206d6f7265207468616e2060008301527f6f6e6365000000000000000000000000000000000000000000000000000000006020830152604082019050919050565b60006121b460328361285a565b91507f596f752073686f756c6420726567697374657220736f6d6520766f746572732060008301527f666972737420286174206c6561737420332900000000000000000000000000006020830152604082019050919050565b600061221a60258361285a565b91507f596f752063616e206f6e6c792073746f7020566f74696e672053657373696f6e60008301527f206f6e63650000000000000000000000000000000000000000000000000000006020830152604082019050919050565b600061228060208361285a565b91507f5468697320766f74657220686173206e6f7420616c726561647920766f7465646000830152602082019050919050565b60006122c0602e8361285a565b91507f536f7272792077652063616e6e6f7420616363657074206d6f7265207468616e60008301527f203130302070726f706f73616c730000000000000000000000000000000000006020830152604082019050919050565b600061232660208361285a565b91507f4f776e61626c653a2063616c6c6572206973206e6f7420746865206f776e65726000830152602082019050919050565b6000612366602d8361285a565b91507f596f752063616e206f6e6c792073746f702050726f706f73616c73205265676960008301527f7374726174696f6e206f6e6365000000000000000000000000000000000000006020830152604082019050919050565b600060408301600083015184820360008601526123dc8282611cf9565b91505060208301516123f160208601826123fc565b508091505092915050565b612405816128b0565b82525050565b612414816128b0565b82525050565b600060208201905061242f6000830184611c08565b92915050565b600060408201905061244a6000830185611bea565b612457602083018461240b565b9392505050565b600060208201905081810360008301526124788184611c17565b905092915050565b6000602082019050818103600083015261249a8184611c75565b905092915050565b60006020820190506124b76000830184611cea565b92915050565b60006040820190506124d26000830185611cea565b6124df6020830184611cea565b9392505050565b600060208201905081810360008301526125008184611d32565b905092915050565b600060408201905081810360008301526125228185611d32565b9050612531602083018461240b565b9392505050565b6000602082019050818103600083015261255181611d6b565b9050919050565b6000602082019050818103600083015261257181611dd1565b9050919050565b6000602082019050818103600083015261259181611e37565b9050919050565b600060208201905081810360008301526125b181611e77565b9050919050565b600060208201905081810360008301526125d181611edd565b9050919050565b600060208201905081810360008301526125f181611f69565b9050919050565b6000602082019050818103600083015261261181611fcf565b9050919050565b6000602082019050818103600083015261263181612035565b9050919050565b600060208201905081810360008301526126518161209b565b9050919050565b6000602082019050818103600083015261267181612101565b9050919050565b6000602082019050818103600083015261269181612141565b9050919050565b600060208201905081810360008301526126b1816121a7565b9050919050565b600060208201905081810360008301526126d18161220d565b9050919050565b600060208201905081810360008301526126f181612273565b9050919050565b60006020820190508181036000830152612711816122b3565b9050919050565b6000602082019050818103600083015261273181612319565b9050919050565b6000602082019050818103600083015261275181612359565b9050919050565b600060208201905061276d600083018461240b565b92915050565b6000604051905081810181811067ffffffffffffffff8211171561279657600080fd5b8060405250919050565b600067ffffffffffffffff8211156127b757600080fd5b601f19601f8301169050602081019050919050565b6000819050602082019050919050565b6000819050602082019050919050565b600081519050919050565b600081519050919050565b600081519050919050565b6000602082019050919050565b6000602082019050919050565b600082825260208201905092915050565b600082825260208201905092915050565b600082825260208201905092915050565b600082825260208201905092915050565b600061287682612890565b9050919050565b600081905061288b82612955565b919050565b600073ffffffffffffffffffffffffffffffffffffffff82169050919050565b6000819050919050565b60006128c5826128de565b9050919050565b60006128d78261287d565b9050919050565b60006128e9826128f0565b9050919050565b60006128fb82612890565b9050919050565b82818337600083830152505050565b60005b8381101561292f578082015181840152602081019050612914565b8381111561293e576000848401525b50505050565b6000601f19601f8301169050919050565b6006811061295f57fe5b50565b61296b8161286b565b811461297657600080fd5b50565b612982816128b0565b811461298d57600080fd5b5056fea2646970667358221220ea83851fff6a7ddd540a47499aaff5ec5ac785ce72ad7599e79dd36abdc5d9b364736f6c634300060b0033",
  "immutableReferences": {},
  "source": "// SPDX-License-Identifier: MIT\r\npragma solidity 0.6.11;\r\npragma experimental ABIEncoderV2;\r\n\r\nimport \"@OpenZeppelin/contracts/access/Ownable.sol\";\r\n\r\n/// @title Formation Alyra \"Dveloppeur Blockchain\" - Dfi - Systme de vote\r\n/// @author Jrme Gauthier\r\n/// @notice Mise en oeuvre d'un systme de vote simple\r\n/// @dev Par rapport  l'nonc initial j'ai simplement ajout la fonction resetVote()\r\n/// accessible par le owner du contract seulement\r\ncontract Voting is Ownable {\r\n\r\n    struct Voter {\r\n        bool isRegistered;\r\n        bool hasVoted;\r\n        uint votedProposalId;\r\n    }\r\n\r\n    struct Proposal {\r\n        string description;\r\n        uint voteCount;\r\n    }\r\n    \r\n    enum WorkflowStatus {\r\n        RegisteringVoters,\r\n        ProposalsRegistrationStarted,\r\n        ProposalsRegistrationEnded,\r\n        VotingSessionStarted,\r\n        VotingSessionEnded,\r\n        VotesTallied\r\n    }\r\n    \r\n    WorkflowStatus currentWorkflowStatus = WorkflowStatus.RegisteringVoters;\r\n    Proposal public winningProposal; // Tout le monde peut vrifier la proposition gagnante\r\n    Proposal[] private proposals; // we will use votedProposalId as key \r\n    address[] private votersAddresses;\r\n    mapping(address => Voter) voters;\r\n    uint numberOfVoters;\r\n    \r\n    event ProposalsRegistrationStarted(); // ok used in startProposalsRegistration function\r\n    event ProposalsRegistrationEnded(); // ok used in stopProposalsRegistration function\r\n    event ProposalRegistered(uint proposalId); // ok used in registerProposal function \r\n    event VotingSessionStarted(); // ok used in startVotingSession function\r\n    event VotingSessionEnded(); // ok used in stopVotingSession function\r\n    event Voted (address voter, uint proposalId); // ok used in voteForProposal function\r\n    event VotesTallied(); // ok used in countVotes function\r\n    event WorkflowStatusChange(WorkflowStatus previousStatus, WorkflowStatus newStatus);// used in setNewWorkflowStatus\r\n\r\n    function resetVote () public onlyOwner {\r\n        currentWorkflowStatus = WorkflowStatus.RegisteringVoters;\r\n        numberOfVoters = 0;\r\n        delete winningProposal;\r\n    }\r\n    \r\n    /// @notice L'administrateur du vote enregistre une liste blanche d'lecteurs identifis par leur adresse Ethereum.\r\n    /// @dev onlyOwner pour que seul le owner du contract puisse enregistrer des lecteurs\r\n    /// @param _address l'adresse de l'lecteur\r\n    function registerVoters(address _address) public onlyOwner {\r\n        require(!voters[_address].isRegistered, \"The address is already registered!\");\r\n        require(currentWorkflowStatus == WorkflowStatus.RegisteringVoters, \"Too late to register voters\");\r\n        votersAddresses.push(_address);\r\n        voters[_address] = Voter(true, false, 0);\r\n        numberOfVoters++;\r\n    }\r\n    \r\n    /// @notice Cette fonction permettra  la Dapp de lister visuellement tous les votants dclars\r\n    function getVotersAdresses() public view returns(address[] memory){\r\n        return votersAddresses;\r\n    }\r\n    \r\n    /// @notice L'administrateur du vote commence la session d'enregistrement de la proposition.\r\n    function startProposalsRegistration() public onlyOwner {\r\n        require(currentWorkflowStatus == WorkflowStatus.RegisteringVoters,\r\n                \"You can only start Proposals Registration once\");\r\n        require(numberOfVoters > 2, \"You should register some voters first (at least 3)\");\r\n        setNewWorkflowStatus(WorkflowStatus.ProposalsRegistrationStarted);\r\n        emit ProposalsRegistrationStarted();\r\n    }\r\n\r\n    /// @notice Les lecteurs inscrits sont autoriss  enregistrer leurs propositions\r\n    /// pendant que la session d'enregistrement est active.\r\n    function registerProposal(string memory proposalDescription) public {\r\n        require(proposals.length<100, \"Sorry we cannot accept more than 100 proposals\");\r\n        require(voters[msg.sender].isRegistered, \"Sorry you can't participate to this vote\");\r\n        require(currentWorkflowStatus == WorkflowStatus.ProposalsRegistrationStarted,\r\n                \"Proposals Registration has not started or is ended\");\r\n        proposals.push(Proposal(proposalDescription, 0));\r\n        emit ProposalRegistered(proposals.length);\r\n    }\r\n\r\n    /// @notice Cette fonction permettra  la Dapp de lister visuellement toutes les propositions effectues\r\n    function getProposals() public view returns(Proposal[] memory){\r\n        return proposals;\r\n    }\r\n\r\n    /// @notice L'administrateur de vote met fin  la session d'enregistrement des propositions.\r\n    function stopProposalsRegistration() public onlyOwner {\r\n        require(currentWorkflowStatus == WorkflowStatus.ProposalsRegistrationStarted,\r\n                \"You can only stop Proposals Registration once\");\r\n        setNewWorkflowStatus(WorkflowStatus.ProposalsRegistrationEnded);\r\n        emit ProposalsRegistrationEnded();\r\n    }\r\n    \r\n    /// @notice L'administrateur du vote commence la session de vote.\r\n    function startVotingSession() public onlyOwner {\r\n        require(currentWorkflowStatus == WorkflowStatus.ProposalsRegistrationEnded,\r\n                \"You can only start Voting Session once Proposals Registration has been stopped\");\r\n        setNewWorkflowStatus(WorkflowStatus.VotingSessionStarted);\r\n        emit VotingSessionStarted();\r\n    }\r\n\r\n    /// @notice Les lecteurs inscrits votent pour leurs propositions prfres.\r\n    function voteForProposal(uint _proposalId) public {\r\n        require(voters[msg.sender].isRegistered, \"Sorry you can't participate to this vote\");\r\n        require(!voters[msg.sender].hasVoted, \"Sorry you cannot vote more than once\");\r\n        require(currentWorkflowStatus == WorkflowStatus.VotingSessionStarted,\r\n                \"Voting Session has not started or is ended\");\r\n        voters[msg.sender].hasVoted = true;\r\n        voters[msg.sender].votedProposalId = _proposalId;\r\n        proposals[_proposalId].voteCount++; // increment the vote count for this proposal id\r\n        emit Voted(msg.sender, _proposalId);\r\n    }\r\n\r\n    /// @notice L'administrateur du vote met fin  la session de vote.\r\n    function stopVotingSession() public onlyOwner {\r\n        require(currentWorkflowStatus == WorkflowStatus.VotingSessionStarted, \"You can only stop Voting Session once\");\r\n        setNewWorkflowStatus(WorkflowStatus.VotingSessionEnded);\r\n        emit VotingSessionEnded();\r\n    }\r\n\r\n    /// @notice L'administrateur du vote comptabilise les votes.\r\n    function countVotes() public onlyOwner returns (string memory) {\r\n        require(currentWorkflowStatus == WorkflowStatus.VotingSessionEnded, \"You should stop Voting Session first\");\r\n        uint winningProposalId;\r\n        for (uint currentProposalId = 0; currentProposalId < proposals.length; currentProposalId++) {\r\n            if (proposals[currentProposalId].voteCount > winningProposalId) {\r\n                winningProposalId = currentProposalId;\r\n            }\r\n        }        \r\n        winningProposal = proposals[winningProposalId];\r\n        setNewWorkflowStatus(WorkflowStatus.VotesTallied);\r\n        emit VotesTallied();\r\n    }\r\n    \r\n    /// @notice Le vote n'est pas secret ; chaque lecteur peut voir les votes des autres.\r\n    function getVote(address voterAddress) public view returns (uint) {\r\n        require(voters[msg.sender].isRegistered, \"Sorry you're not a voter'\");\r\n        require(voters[voterAddress].votedProposalId > 0, \"This voter has not already voted\");\r\n        return  voters[msg.sender].votedProposalId;\r\n    }\r\n\r\n    /// @notice passage d'un statut  l'autre\r\n    function setNewWorkflowStatus (WorkflowStatus newWorkflowStatus) private {\r\n        WorkflowStatus previousWorkflowStatus = currentWorkflowStatus;\r\n        currentWorkflowStatus = newWorkflowStatus;\r\n        emit WorkflowStatusChange(previousWorkflowStatus, newWorkflowStatus);\r\n    }\r\n    \r\n    /// @notice Renvoit le statut courant du workflow\r\n    function getCurrentWorkflowStatus() public view returns (WorkflowStatus) {\r\n        return  currentWorkflowStatus;\r\n    }\r\n}",
  "sourcePath": "C:/Appli.crypto/Alyra-Challenges/system-de-vote/contracts/voting.sol",
  "compiler": {
    "name": "solc",
    "version": "0.6.11+commit.5ef660b1.Emscripten.clang"
  },
  "schemaVersion": "3.4.1",
  "updatedAt": "2021-06-28T06:10:29.991Z",
  "networkType": "ethereum",
  "devdoc": {
    "author": "Jrme Gauthier",
    "details": "Par rapport  l'nonc initial j'ai simplement ajout la fonction resetVote() accessible par le owner du contract seulement",
    "kind": "dev",
    "methods": {
      "owner()": {
        "details": "Returns the address of the current owner."
      },
      "registerVoters(address)": {
        "details": "onlyOwner pour que seul le owner du contract puisse enregistrer des lecteurs",
        "params": {
          "_address": "l'adresse de l'lecteur"
        }
      },
      "renounceOwnership()": {
        "details": "Leaves the contract without owner. It will not be possible to call `onlyOwner` functions anymore. Can only be called by the current owner. NOTE: Renouncing ownership will leave the contract without an owner, thereby removing any functionality that is only available to the owner."
      },
      "transferOwnership(address)": {
        "details": "Transfers ownership of the contract to a new account (`newOwner`). Can only be called by the current owner."
      }
    },
    "title": "Formation Alyra \"Dveloppeur Blockchain\" - Dfi - Systme de vote",
    "version": 1
  },
  "userdoc": {
    "kind": "user",
    "methods": {
      "countVotes()": {
        "notice": "L'administrateur du vote comptabilise les votes."
      },
      "getCurrentWorkflowStatus()": {
        "notice": "Renvoit le statut courant du workflow"
      },
      "getProposals()": {
        "notice": "Cette fonction permettra  la Dapp de lister visuellement toutes les propositions effectues"
      },
      "getVote(address)": {
        "notice": "Le vote n'est pas secret ; chaque lecteur peut voir les votes des autres."
      },
      "getVotersAdresses()": {
        "notice": "Cette fonction permettra  la Dapp de lister visuellement tous les votants dclars"
      },
      "registerProposal(string)": {
        "notice": "Les lecteurs inscrits sont autoriss  enregistrer leurs propositions pendant que la session d'enregistrement est active."
      },
      "registerVoters(address)": {
        "notice": "L'administrateur du vote enregistre une liste blanche d'lecteurs identifis par leur adresse Ethereum."
      },
      "startProposalsRegistration()": {
        "notice": "L'administrateur du vote commence la session d'enregistrement de la proposition."
      },
      "startVotingSession()": {
        "notice": "L'administrateur du vote commence la session de vote."
      },
      "stopProposalsRegistration()": {
        "notice": "L'administrateur de vote met fin  la session d'enregistrement des propositions."
      },
      "stopVotingSession()": {
        "notice": "L'administrateur du vote met fin  la session de vote."
      },
      "voteForProposal(uint256)": {
        "notice": "Les lecteurs inscrits votent pour leurs propositions prfres."
      }
    },
    "notice": "Mise en oeuvre d'un systme de vote simple",
    "version": 1
  }
}