{
  "contractName": "Voting",
  "abi": [
    {
      "anonymous": false,
      "inputs": [
        {
          "indexed": true,
          "internalType": "address",
          "name": "previousOwner",
          "type": "address"
        },
        {
          "indexed": true,
          "internalType": "address",
          "name": "newOwner",
          "type": "address"
        }
      ],
      "name": "OwnershipTransferred",
      "type": "event"
    },
    {
      "anonymous": false,
      "inputs": [
        {
          "indexed": false,
          "internalType": "uint256",
          "name": "proposalId",
          "type": "uint256"
        }
      ],
      "name": "ProposalRegistered",
      "type": "event"
    },
    {
      "anonymous": false,
      "inputs": [],
      "name": "ProposalsRegistrationEnded",
      "type": "event"
    },
    {
      "anonymous": false,
      "inputs": [],
      "name": "ProposalsRegistrationStarted",
      "type": "event"
    },
    {
      "anonymous": false,
      "inputs": [
        {
          "indexed": false,
          "internalType": "address",
          "name": "voter",
          "type": "address"
        },
        {
          "indexed": false,
          "internalType": "uint256",
          "name": "proposalId",
          "type": "uint256"
        }
      ],
      "name": "Voted",
      "type": "event"
    },
    {
      "anonymous": false,
      "inputs": [],
      "name": "VotesTallied",
      "type": "event"
    },
    {
      "anonymous": false,
      "inputs": [],
      "name": "VotingSessionEnded",
      "type": "event"
    },
    {
      "anonymous": false,
      "inputs": [],
      "name": "VotingSessionStarted",
      "type": "event"
    },
    {
      "anonymous": false,
      "inputs": [
        {
          "indexed": false,
          "internalType": "enum Voting.WorkflowStatus",
          "name": "previousStatus",
          "type": "uint8"
        },
        {
          "indexed": false,
          "internalType": "enum Voting.WorkflowStatus",
          "name": "newStatus",
          "type": "uint8"
        }
      ],
      "name": "WorkflowStatusChange",
      "type": "event"
    },
    {
      "inputs": [],
      "name": "owner",
      "outputs": [
        {
          "internalType": "address",
          "name": "",
          "type": "address"
        }
      ],
      "stateMutability": "view",
      "type": "function",
      "constant": true
    },
    {
      "inputs": [],
      "name": "renounceOwnership",
      "outputs": [],
      "stateMutability": "nonpayable",
      "type": "function"
    },
    {
      "inputs": [
        {
          "internalType": "address",
          "name": "newOwner",
          "type": "address"
        }
      ],
      "name": "transferOwnership",
      "outputs": [],
      "stateMutability": "nonpayable",
      "type": "function"
    },
    {
      "inputs": [],
      "name": "winningProposal",
      "outputs": [
        {
          "internalType": "string",
          "name": "description",
          "type": "string"
        },
        {
          "internalType": "uint256",
          "name": "voteCount",
          "type": "uint256"
        }
      ],
      "stateMutability": "view",
      "type": "function",
      "constant": true
    },
    {
      "inputs": [],
      "name": "resetVote",
      "outputs": [],
      "stateMutability": "nonpayable",
      "type": "function"
    },
    {
      "inputs": [
        {
          "internalType": "address",
          "name": "_address",
          "type": "address"
        }
      ],
      "name": "registerVoters",
      "outputs": [],
      "stateMutability": "nonpayable",
      "type": "function"
    },
    {
      "inputs": [],
      "name": "getVotersAdresses",
      "outputs": [
        {
          "internalType": "address[]",
          "name": "",
          "type": "address[]"
        }
      ],
      "stateMutability": "view",
      "type": "function",
      "constant": true
    },
    {
      "inputs": [],
      "name": "getVoter",
      "outputs": [
        {
          "components": [
            {
              "internalType": "bool",
              "name": "isRegistered",
              "type": "bool"
            },
            {
              "internalType": "bool",
              "name": "hasVoted",
              "type": "bool"
            },
            {
              "internalType": "uint256",
              "name": "votedProposalId",
              "type": "uint256"
            }
          ],
          "internalType": "struct Voting.Voter",
          "name": "",
          "type": "tuple"
        }
      ],
      "stateMutability": "view",
      "type": "function",
      "constant": true
    },
    {
      "inputs": [],
      "name": "startProposalsRegistration",
      "outputs": [],
      "stateMutability": "nonpayable",
      "type": "function"
    },
    {
      "inputs": [
        {
          "internalType": "string",
          "name": "proposalDescription",
          "type": "string"
        }
      ],
      "name": "registerProposal",
      "outputs": [],
      "stateMutability": "nonpayable",
      "type": "function"
    },
    {
      "inputs": [],
      "name": "getProposals",
      "outputs": [
        {
          "components": [
            {
              "internalType": "string",
              "name": "description",
              "type": "string"
            },
            {
              "internalType": "uint256",
              "name": "voteCount",
              "type": "uint256"
            }
          ],
          "internalType": "struct Voting.Proposal[]",
          "name": "",
          "type": "tuple[]"
        }
      ],
      "stateMutability": "view",
      "type": "function",
      "constant": true
    },
    {
      "inputs": [],
      "name": "stopProposalsRegistration",
      "outputs": [],
      "stateMutability": "nonpayable",
      "type": "function"
    },
    {
      "inputs": [],
      "name": "startVotingSession",
      "outputs": [],
      "stateMutability": "nonpayable",
      "type": "function"
    },
    {
      "inputs": [
        {
          "internalType": "uint256",
          "name": "_proposalId",
          "type": "uint256"
        }
      ],
      "name": "voteForProposal",
      "outputs": [],
      "stateMutability": "nonpayable",
      "type": "function"
    },
    {
      "inputs": [],
      "name": "stopVotingSession",
      "outputs": [],
      "stateMutability": "nonpayable",
      "type": "function"
    },
    {
      "inputs": [],
      "name": "countVotes",
      "outputs": [
        {
          "internalType": "string",
          "name": "",
          "type": "string"
        }
      ],
      "stateMutability": "nonpayable",
      "type": "function"
    },
    {
      "inputs": [
        {
          "internalType": "address",
          "name": "voterAddress",
          "type": "address"
        }
      ],
      "name": "getVote",
      "outputs": [
        {
          "internalType": "uint256",
          "name": "",
          "type": "uint256"
        }
      ],
      "stateMutability": "view",
      "type": "function",
      "constant": true
    },
    {
      "inputs": [],
      "name": "getCurrentWorkflowStatus",
      "outputs": [
        {
          "internalType": "enum Voting.WorkflowStatus",
          "name": "",
          "type": "uint8"
        }
      ],
      "stateMutability": "view",
      "type": "function",
      "constant": true
    }
  ],
  "bytecode": "0x608060405260008060146101000a81548160ff021916908360058111156200002357fe5b02179055503480156200003557600080fd5b50600062000051620000f5640100000000026401000000009004565b9050806000806101000a81548173ffffffffffffffffffffffffffffffffffffffff021916908373ffffffffffffffffffffffffffffffffffffffff1602179055508073ffffffffffffffffffffffffffffffffffffffff16600073ffffffffffffffffffffffffffffffffffffffff167f8be0079c531659141344cd1fd0a4f28419497f9722a3daafe3b4186f6b6457e060405160405180910390a350620000fd565b600033905090565b612c85806200010d6000396000f3fe608060405234801561001057600080fd5b5060043610610133576000357c0100000000000000000000000000000000000000000000000000000000900480638d337b81116100bf578063bd0434d41161008e578063bd0434d41461027d578063e09b8c791461029b578063ed8a1608146102a5578063ee74c678146102c1578063f2fde38b146102cb57610133565b80638d337b81146101f35780638da5cb5b14610223578063af7c41a014610241578063b647990a1461025f57610133565b8063329a8cfa11610106578063329a8cfa1461019857806353302887146101a2578063609ff1bd146101ac57806362564c48146101cb578063715018a6146101e957610133565b8063045c6ce01461013857806317a0ad8e146101545780632b37f53c1461015e5780632f95355b1461017c575b600080fd5b610152600480360381019061014d9190611ddc565b6102e7565b005b61015c61057a565b005b6101666106b0565b60405161017391906129f0565b60405180910390f35b61019660048036038101906101919190611d9b565b610747565b005b6101a061092f565b005b6101aa610af5565b005b6101b4610c2b565b6040516101c29291906127a0565b60405180910390f35b6101d3610cd5565b6040516101e09190612718565b60405180910390f35b6101f1610de0565b005b61020d60048036038101906102089190611d72565b610f35565b60405161021a9190612a0b565b60405180910390f35b61022b611095565b60405161023891906126b2565b60405180910390f35b6102496110be565b604051610256919061273a565b60405180910390f35b6102676110d4565b604051610274919061277e565b60405180910390f35b6102856112ad565b60405161029291906126f6565b60405180910390f35b6102a361133b565b005b6102bf60048036038101906102ba9190611d72565b6114b6565b005b6102c961176a565b005b6102e560048036038101906102e09190611d72565b6118a0565b005b600560003373ffffffffffffffffffffffffffffffffffffffff1673ffffffffffffffffffffffffffffffffffffffff16815260200190815260200160002060000160009054906101000a900460ff16610376576040517f08c379a000000000000000000000000000000000000000000000000000000000815260040161036d90612890565b60405180910390fd5b600560003373ffffffffffffffffffffffffffffffffffffffff1673ffffffffffffffffffffffffffffffffffffffff16815260200190815260200160002060000160019054906101000a900460ff1615610406576040517f08c379a00000000000000000000000000000000000000000000000000000000081526004016103fd90612910565b60405180910390fd5b6003600581111561041357fe5b600060149054906101000a900460ff16600581111561042e57fe5b1461046e576040517f08c379a0000000000000000000000000000000000000000000000000000000008152600401610465906128d0565b60405180910390fd5b6001600560003373ffffffffffffffffffffffffffffffffffffffff1673ffffffffffffffffffffffffffffffffffffffff16815260200190815260200160002060000160016101000a81548160ff02191690831515021790555080600560003373ffffffffffffffffffffffffffffffffffffffff1673ffffffffffffffffffffffffffffffffffffffff168152602001908152602001600020600101819055506003818154811061051d57fe5b9060005260206000209060020201600101600081548092919060010191905055507f4d99b957a2bc29a30ebd96a7be8e68fe50a3c701db28a91436490b7d53870ca4338260405161056f9291906126cd565b60405180910390a150565b610582611a64565b73ffffffffffffffffffffffffffffffffffffffff166000809054906101000a900473ffffffffffffffffffffffffffffffffffffffff1673ffffffffffffffffffffffffffffffffffffffff1614610610576040517f08c379a0000000000000000000000000000000000000000000000000000000008152600401610607906129b0565b60405180910390fd5b6003600581111561061d57fe5b600060149054906101000a900460ff16600581111561063857fe5b14610678576040517f08c379a000000000000000000000000000000000000000000000000000000000815260040161066f90612950565b60405180910390fd5b6106826004611a6c565b7fc379d349a6301baf50fb2f98d829f4ae10b1cdb7c66f4e4d8117302df7b8cd4c60405160405180910390a1565b6106b8611adf565b600560003373ffffffffffffffffffffffffffffffffffffffff1673ffffffffffffffffffffffffffffffffffffffff1681526020019081526020016000206040518060600160405290816000820160009054906101000a900460ff161515151581526020016000820160019054906101000a900460ff16151515158152602001600182015481525050905090565b60646003805490501061078f576040517f08c379a000000000000000000000000000000000000000000000000000000000815260040161078690612990565b60405180910390fd5b600560003373ffffffffffffffffffffffffffffffffffffffff1673ffffffffffffffffffffffffffffffffffffffff16815260200190815260200160002060000160009054906101000a900460ff1661081e576040517f08c379a000000000000000000000000000000000000000000000000000000000815260040161081590612890565b60405180910390fd5b6001600581111561082b57fe5b600060149054906101000a900460ff16600581111561084657fe5b14610886576040517f08c379a000000000000000000000000000000000000000000000000000000000815260040161087d906127f0565b60405180910390fd5b600360405180604001604052808381526020016000815250908060018154018082558091505060019003906000526020600020906002020160009091909190915060008201518160000190805190602001906108e3929190611b04565b506020820151816001015550507f92e393e9b54e2f801d3ea4beb0c5e71a21cc34a5d34b77d0fb8a3aa1650dc18f6003805490506040516109249190612a0b565b60405180910390a150565b610937611a64565b73ffffffffffffffffffffffffffffffffffffffff166000809054906101000a900473ffffffffffffffffffffffffffffffffffffffff1673ffffffffffffffffffffffffffffffffffffffff16146109c5576040517f08c379a00000000000000000000000000000000000000000000000000000000081526004016109bc906129b0565b60405180910390fd5b60008060146101000a81548160ff021916908360058111156109e357fe5b02179055506001600080820160006109fb9190611b84565b6001820160009055505060036000610a139190611bcc565b60008090505b600480549050811015610adc576005600060048381548110610a3757fe5b9060005260206000200160009054906101000a900473ffffffffffffffffffffffffffffffffffffffff1673ffffffffffffffffffffffffffffffffffffffff1673ffffffffffffffffffffffffffffffffffffffff168152602001908152602001600020600080820160006101000a81549060ff02191690556000820160016101000a81549060ff0219169055600182016000905550508080600101915050610a19565b60046000610aea9190611bf0565b600060068190555050565b610afd611a64565b73ffffffffffffffffffffffffffffffffffffffff166000809054906101000a900473ffffffffffffffffffffffffffffffffffffffff1673ffffffffffffffffffffffffffffffffffffffff1614610b8b576040517f08c379a0000000000000000000000000000000000000000000000000000000008152600401610b82906129b0565b60405180910390fd5b60016005811115610b9857fe5b600060149054906101000a900460ff166005811115610bb357fe5b14610bf3576040517f08c379a0000000000000000000000000000000000000000000000000000000008152600401610bea906129d0565b60405180910390fd5b610bfd6002611a6c565b7f240cb87b2e4df4c318e72bd714d45a9cad60249e883ff56b1fffd83a4595a8fa60405160405180910390a1565b6001806000018054600181600116156101000203166002900480601f016020809104026020016040519081016040528092919081815260200182805460018160011615610100020316600290048015610cc55780601f10610c9a57610100808354040283529160200191610cc5565b820191906000526020600020905b815481529060010190602001808311610ca857829003601f168201915b5050505050908060010154905082565b60606003805480602002602001604051908101604052809291908181526020016000905b82821015610dd75783829060005260206000209060020201604051806040016040529081600082018054600181600116156101000203166002900480601f016020809104026020016040519081016040528092919081815260200182805460018160011615610100020316600290048015610db55780601f10610d8a57610100808354040283529160200191610db5565b820191906000526020600020905b815481529060010190602001808311610d9857829003601f168201915b5050505050815260200160018201548152505081526020019060010190610cf9565b50505050905090565b610de8611a64565b73ffffffffffffffffffffffffffffffffffffffff166000809054906101000a900473ffffffffffffffffffffffffffffffffffffffff1673ffffffffffffffffffffffffffffffffffffffff1614610e76576040517f08c379a0000000000000000000000000000000000000000000000000000000008152600401610e6d906129b0565b60405180910390fd5b600073ffffffffffffffffffffffffffffffffffffffff166000809054906101000a900473ffffffffffffffffffffffffffffffffffffffff1673ffffffffffffffffffffffffffffffffffffffff167f8be0079c531659141344cd1fd0a4f28419497f9722a3daafe3b4186f6b6457e060405160405180910390a360008060006101000a81548173ffffffffffffffffffffffffffffffffffffffff021916908373ffffffffffffffffffffffffffffffffffffffff160217905550565b6000600560003373ffffffffffffffffffffffffffffffffffffffff1673ffffffffffffffffffffffffffffffffffffffff16815260200190815260200160002060000160009054906101000a900460ff16610fc6576040517f08c379a0000000000000000000000000000000000000000000000000000000008152600401610fbd906128f0565b60405180910390fd5b6000600560008473ffffffffffffffffffffffffffffffffffffffff1673ffffffffffffffffffffffffffffffffffffffff168152602001908152602001600020600101541161104b576040517f08c379a000000000000000000000000000000000000000000000000000000000815260040161104290612970565b60405180910390fd5b600560003373ffffffffffffffffffffffffffffffffffffffff1673ffffffffffffffffffffffffffffffffffffffff168152602001908152602001600020600101549050919050565b60008060009054906101000a900473ffffffffffffffffffffffffffffffffffffffff16905090565b60008060149054906101000a900460ff16905090565b60606110de611a64565b73ffffffffffffffffffffffffffffffffffffffff166000809054906101000a900473ffffffffffffffffffffffffffffffffffffffff1673ffffffffffffffffffffffffffffffffffffffff161461116c576040517f08c379a0000000000000000000000000000000000000000000000000000000008152600401611163906129b0565b60405180910390fd5b6004600581111561117957fe5b600060149054906101000a900460ff16600581111561119457fe5b146111d4576040517f08c379a00000000000000000000000000000000000000000000000000000000081526004016111cb906128b0565b60405180910390fd5b600080600090505b6003805490508110156112205781600382815481106111f757fe5b9060005260206000209060020201600101541115611213578091505b80806001019150506111dc565b506003818154811061122e57fe5b9060005260206000209060020201600160008201816000019080546001816001161561010002031660029004611265929190611c11565b506001820154816001015590505061127d6005611a6c565b7f0e5e95ff8725ab3e7a4b6b59998a4c344c2aa8d1485f5e60cb7f337768e6134760405160405180910390a15090565b6060600480548060200260200160405190810160405280929190818152602001828054801561133157602002820191906000526020600020905b8160009054906101000a900473ffffffffffffffffffffffffffffffffffffffff1673ffffffffffffffffffffffffffffffffffffffff16815260200190600101908083116112e7575b5050505050905090565b611343611a64565b73ffffffffffffffffffffffffffffffffffffffff166000809054906101000a900473ffffffffffffffffffffffffffffffffffffffff1673ffffffffffffffffffffffffffffffffffffffff16146113d1576040517f08c379a00000000000000000000000000000000000000000000000000000000081526004016113c8906129b0565b60405180910390fd5b600060058111156113de57fe5b600060149054906101000a900460ff1660058111156113f957fe5b14611439576040517f08c379a000000000000000000000000000000000000000000000000000000000815260040161143090612870565b60405180910390fd5b60026006541161147e576040517f08c379a000000000000000000000000000000000000000000000000000000000815260040161147590612930565b60405180910390fd5b6114886001611a6c565b7f344c25562921d075a298d34b6dd1fd00d36ff293974539dfd4a8c625d9f0064c60405160405180910390a1565b6114be611a64565b73ffffffffffffffffffffffffffffffffffffffff166000809054906101000a900473ffffffffffffffffffffffffffffffffffffffff1673ffffffffffffffffffffffffffffffffffffffff161461154c576040517f08c379a0000000000000000000000000000000000000000000000000000000008152600401611543906129b0565b60405180910390fd5b600560008273ffffffffffffffffffffffffffffffffffffffff1673ffffffffffffffffffffffffffffffffffffffff16815260200190815260200160002060000160009054906101000a900460ff16156115dc576040517f08c379a00000000000000000000000000000000000000000000000000000000081526004016115d3906127d0565b60405180910390fd5b600060058111156115e957fe5b600060149054906101000a900460ff16600581111561160457fe5b14611644576040517f08c379a000000000000000000000000000000000000000000000000000000000815260040161163b90612810565b60405180910390fd5b6004819080600181540180825580915050600190039060005260206000200160009091909190916101000a81548173ffffffffffffffffffffffffffffffffffffffff021916908373ffffffffffffffffffffffffffffffffffffffff16021790555060405180606001604052806001151581526020016000151581526020016000815250600560008373ffffffffffffffffffffffffffffffffffffffff1673ffffffffffffffffffffffffffffffffffffffff16815260200190815260200160002060008201518160000160006101000a81548160ff02191690831515021790555060208201518160000160016101000a81548160ff0219169083151502179055506040820151816001015590505060066000815480929190600101919050555050565b611772611a64565b73ffffffffffffffffffffffffffffffffffffffff166000809054906101000a900473ffffffffffffffffffffffffffffffffffffffff1673ffffffffffffffffffffffffffffffffffffffff1614611800576040517f08c379a00000000000000000000000000000000000000000000000000000000081526004016117f7906129b0565b60405180910390fd5b6002600581111561180d57fe5b600060149054906101000a900460ff16600581111561182857fe5b14611868576040517f08c379a000000000000000000000000000000000000000000000000000000000815260040161185f90612850565b60405180910390fd5b6118726003611a6c565b7f1b8e19a458c1bcd88553332c518cc5c4e2d5793e712ee766d4f1c14f672ef1f560405160405180910390a1565b6118a8611a64565b73ffffffffffffffffffffffffffffffffffffffff166000809054906101000a900473ffffffffffffffffffffffffffffffffffffffff1673ffffffffffffffffffffffffffffffffffffffff1614611936576040517f08c379a000000000000000000000000000000000000000000000000000000000815260040161192d906129b0565b60405180910390fd5b600073ffffffffffffffffffffffffffffffffffffffff168173ffffffffffffffffffffffffffffffffffffffff1614156119a6576040517f08c379a000000000000000000000000000000000000000000000000000000000815260040161199d90612830565b60405180910390fd5b8073ffffffffffffffffffffffffffffffffffffffff166000809054906101000a900473ffffffffffffffffffffffffffffffffffffffff1673ffffffffffffffffffffffffffffffffffffffff167f8be0079c531659141344cd1fd0a4f28419497f9722a3daafe3b4186f6b6457e060405160405180910390a3806000806101000a81548173ffffffffffffffffffffffffffffffffffffffff021916908373ffffffffffffffffffffffffffffffffffffffff16021790555050565b600033905090565b60008060149054906101000a900460ff16905081600060146101000a81548160ff02191690836005811115611a9d57fe5b02179055507f0a97a4ee45751e2abf3e4fc8946939630b11b371ea8ae39ccdc3056e98f5cc3f8183604051611ad3929190612755565b60405180910390a15050565b6040518060600160405280600015158152602001600015158152602001600081525090565b828054600181600116156101000203166002900490600052602060002090601f016020900481019282601f10611b4557805160ff1916838001178555611b73565b82800160010185558215611b73579182015b82811115611b72578251825591602001919060010190611b57565b5b509050611b809190611c98565b5090565b50805460018160011615610100020316600290046000825580601f10611baa5750611bc9565b601f016020900490600052602060002090810190611bc89190611c98565b5b50565b5080546000825560020290600052602060002090810190611bed9190611cbd565b50565b5080546000825590600052602060002090810190611c0e9190611c98565b50565b828054600181600116156101000203166002900490600052602060002090601f016020900481019282601f10611c4a5780548555611c87565b82800160010185558215611c8757600052602060002091601f016020900482015b82811115611c86578254825591600101919060010190611c6b565b5b509050611c949190611c98565b5090565b611cba91905b80821115611cb6576000816000905550600101611c9e565b5090565b90565b611cf191905b80821115611ced5760008082016000611cdc9190611b84565b600182016000905550600201611cc3565b5090565b90565b600081359050611d0381612c21565b92915050565b600082601f830112611d1a57600080fd5b8135611d2d611d2882612a53565b612a26565b91508082526020830160208301858383011115611d4957600080fd5b611d54838284612bc1565b50505092915050565b600081359050611d6c81612c38565b92915050565b600060208284031215611d8457600080fd5b6000611d9284828501611cf4565b91505092915050565b600060208284031215611dad57600080fd5b600082013567ffffffffffffffff811115611dc757600080fd5b611dd384828501611d09565b91505092915050565b600060208284031215611dee57600080fd5b6000611dfc84828501611d5d565b91505092915050565b6000611e118383611e40565b60208301905092915050565b6000611e298383612615565b905092915050565b611e3a81612b79565b82525050565b611e4981612b1e565b82525050565b611e5881612b1e565b82525050565b6000611e6982612a9f565b611e738185612ada565b9350611e7e83612a7f565b8060005b83811015611eaf578151611e968882611e05565b9750611ea183612ac0565b925050600181019050611e82565b5085935050505092915050565b6000611ec782612aaa565b611ed18185612aeb565b935083602082028501611ee385612a8f565b8060005b85811015611f1f5784840389528151611f008582611e1d565b9450611f0b83612acd565b925060208a01995050600181019050611ee7565b50829750879550505050505092915050565b611f3a81612b30565b82525050565b611f4981612b8b565b82525050565b6000611f5a82612ab5565b611f648185612afc565b9350611f74818560208601612bd0565b611f7d81612c03565b840191505092915050565b6000611f9382612ab5565b611f9d8185612b0d565b9350611fad818560208601612bd0565b611fb681612c03565b840191505092915050565b6000611fce602283612b0d565b91507f546865206164647265737320697320616c72656164792072656769737465726560008301527f64210000000000000000000000000000000000000000000000000000000000006020830152604082019050919050565b6000612034603283612b0d565b91507f50726f706f73616c7320526567697374726174696f6e20686173206e6f74207360008301527f746172746564206f7220697320656e64656400000000000000000000000000006020830152604082019050919050565b600061209a601b83612b0d565b91507f546f6f206c61746520746f20726567697374657220766f7465727300000000006000830152602082019050919050565b60006120da602683612b0d565b91507f4f776e61626c653a206e6577206f776e657220697320746865207a65726f206160008301527f64647265737300000000000000000000000000000000000000000000000000006020830152604082019050919050565b6000612140604e83612b0d565b91507f596f752063616e206f6e6c7920737461727420566f74696e672053657373696f60008301527f6e206f6e63652050726f706f73616c7320526567697374726174696f6e20686160208301527f73206265656e2073746f707065640000000000000000000000000000000000006040830152606082019050919050565b60006121cc602e83612b0d565b91507f596f752063616e206f6e6c792073746172742050726f706f73616c732052656760008301527f697374726174696f6e206f6e63650000000000000000000000000000000000006020830152604082019050919050565b6000612232602883612b0d565b91507f536f72727920796f752063616e277420706172746963697061746520746f207460008301527f68697320766f74650000000000000000000000000000000000000000000000006020830152604082019050919050565b6000612298602483612b0d565b91507f596f752073686f756c642073746f7020566f74696e672053657373696f6e206660008301527f69727374000000000000000000000000000000000000000000000000000000006020830152604082019050919050565b60006122fe602a83612b0d565b91507f566f74696e672053657373696f6e20686173206e6f742073746172746564206f60008301527f7220697320656e646564000000000000000000000000000000000000000000006020830152604082019050919050565b6000612364601983612b0d565b91507f536f72727920796f75277265206e6f74206120766f74657227000000000000006000830152602082019050919050565b60006123a4602483612b0d565b91507f536f72727920796f752063616e6e6f7420766f7465206d6f7265207468616e2060008301527f6f6e6365000000000000000000000000000000000000000000000000000000006020830152604082019050919050565b600061240a603283612b0d565b91507f596f752073686f756c6420726567697374657220736f6d6520766f746572732060008301527f666972737420286174206c6561737420332900000000000000000000000000006020830152604082019050919050565b6000612470602583612b0d565b91507f596f752063616e206f6e6c792073746f7020566f74696e672053657373696f6e60008301527f206f6e63650000000000000000000000000000000000000000000000000000006020830152604082019050919050565b60006124d6602083612b0d565b91507f5468697320766f74657220686173206e6f7420616c726561647920766f7465646000830152602082019050919050565b6000612516602e83612b0d565b91507f536f7272792077652063616e6e6f7420616363657074206d6f7265207468616e60008301527f203130302070726f706f73616c730000000000000000000000000000000000006020830152604082019050919050565b600061257c602083612b0d565b91507f4f776e61626c653a2063616c6c6572206973206e6f7420746865206f776e65726000830152602082019050919050565b60006125bc602d83612b0d565b91507f596f752063616e206f6e6c792073746f702050726f706f73616c73205265676960008301527f7374726174696f6e206f6e6365000000000000000000000000000000000000006020830152604082019050919050565b600060408301600083015184820360008601526126328282611f4f565b91505060208301516126476020860182612694565b508091505092915050565b6060820160008201516126686000850182611f31565b50602082015161267b6020850182611f31565b50604082015161268e6040850182612694565b50505050565b61269d81612b6f565b82525050565b6126ac81612b6f565b82525050565b60006020820190506126c76000830184611e4f565b92915050565b60006040820190506126e26000830185611e31565b6126ef60208301846126a3565b9392505050565b600060208201905081810360008301526127108184611e5e565b905092915050565b600060208201905081810360008301526127328184611ebc565b905092915050565b600060208201905061274f6000830184611f40565b92915050565b600060408201905061276a6000830185611f40565b6127776020830184611f40565b9392505050565b600060208201905081810360008301526127988184611f88565b905092915050565b600060408201905081810360008301526127ba8185611f88565b90506127c960208301846126a3565b9392505050565b600060208201905081810360008301526127e981611fc1565b9050919050565b6000602082019050818103600083015261280981612027565b9050919050565b600060208201905081810360008301526128298161208d565b9050919050565b60006020820190508181036000830152612849816120cd565b9050919050565b6000602082019050818103600083015261286981612133565b9050919050565b60006020820190508181036000830152612889816121bf565b9050919050565b600060208201905081810360008301526128a981612225565b9050919050565b600060208201905081810360008301526128c98161228b565b9050919050565b600060208201905081810360008301526128e9816122f1565b9050919050565b6000602082019050818103600083015261290981612357565b9050919050565b6000602082019050818103600083015261292981612397565b9050919050565b60006020820190508181036000830152612949816123fd565b9050919050565b6000602082019050818103600083015261296981612463565b9050919050565b60006020820190508181036000830152612989816124c9565b9050919050565b600060208201905081810360008301526129a981612509565b9050919050565b600060208201905081810360008301526129c98161256f565b9050919050565b600060208201905081810360008301526129e9816125af565b9050919050565b6000606082019050612a056000830184612652565b92915050565b6000602082019050612a2060008301846126a3565b92915050565b6000604051905081810181811067ffffffffffffffff82111715612a4957600080fd5b8060405250919050565b600067ffffffffffffffff821115612a6a57600080fd5b601f19601f8301169050602081019050919050565b6000819050602082019050919050565b6000819050602082019050919050565b600081519050919050565b600081519050919050565b600081519050919050565b6000602082019050919050565b6000602082019050919050565b600082825260208201905092915050565b600082825260208201905092915050565b600082825260208201905092915050565b600082825260208201905092915050565b6000612b2982612b4f565b9050919050565b60008115159050919050565b6000819050612b4a82612c14565b919050565b600073ffffffffffffffffffffffffffffffffffffffff82169050919050565b6000819050919050565b6000612b8482612b9d565b9050919050565b6000612b9682612b3c565b9050919050565b6000612ba882612baf565b9050919050565b6000612bba82612b4f565b9050919050565b82818337600083830152505050565b60005b83811015612bee578082015181840152602081019050612bd3565b83811115612bfd576000848401525b50505050565b6000601f19601f8301169050919050565b60068110612c1e57fe5b50565b612c2a81612b1e565b8114612c3557600080fd5b50565b612c4181612b6f565b8114612c4c57600080fd5b5056fea26469706673582212206e6ef6783d610e710caf79e4b6a90754651861918cdf312b6655c98edcb01d6064736f6c634300060b0033",
  "immutableReferences": {},
  "source": "// SPDX-License-Identifier: MIT\r\npragma solidity 0.6.11;\r\npragma experimental ABIEncoderV2;\r\n\r\nimport \"@OpenZeppelin/contracts/access/Ownable.sol\";\r\n\r\n/// @title Formation Alyra \"Dveloppeur Blockchain\" - Dfi - Systme de vote\r\n/// @author Jrme Gauthier\r\n/// @notice Mise en oeuvre d'un systme de vote simple\r\n/// @dev Par rapport  l'nonc initial j'ai simplement ajout la fonction resetVote()\r\n/// accessible par le owner du contract seulement\r\ncontract Voting is Ownable {\r\n\r\n    struct Voter {\r\n        bool isRegistered;\r\n        bool hasVoted;\r\n        uint votedProposalId;\r\n    }\r\n\r\n    struct Proposal {\r\n        string description;\r\n        uint voteCount;\r\n    }\r\n    \r\n    enum WorkflowStatus {\r\n        RegisteringVoters,\r\n        ProposalsRegistrationStarted,\r\n        ProposalsRegistrationEnded,\r\n        VotingSessionStarted,\r\n        VotingSessionEnded,\r\n        VotesTallied\r\n    }\r\n    \r\n    WorkflowStatus currentWorkflowStatus = WorkflowStatus.RegisteringVoters;\r\n    Proposal public winningProposal; // Tout le monde peut vrifier la proposition gagnante\r\n    Proposal[] private proposals; // we will use votedProposalId as key \r\n    address[] private votersAddresses;\r\n    mapping(address => Voter) voters;\r\n    uint numberOfVoters;\r\n    \r\n    event ProposalsRegistrationStarted(); // ok used in startProposalsRegistration function\r\n    event ProposalsRegistrationEnded(); // ok used in stopProposalsRegistration function\r\n    event ProposalRegistered(uint proposalId); // ok used in registerProposal function \r\n    event VotingSessionStarted(); // ok used in startVotingSession function\r\n    event VotingSessionEnded(); // ok used in stopVotingSession function\r\n    event Voted (address voter, uint proposalId); // ok used in voteForProposal function\r\n    event VotesTallied(); // ok used in countVotes function\r\n    event WorkflowStatusChange(WorkflowStatus previousStatus, WorkflowStatus newStatus);// used in setNewWorkflowStatus\r\n\r\n    function resetVote () public onlyOwner {\r\n        currentWorkflowStatus = WorkflowStatus.RegisteringVoters;\r\n        delete winningProposal;\r\n        delete proposals;\r\n        // to reset a mapping we need to delete its values, we cannot use the direct delete command\r\n        uint counter;\r\n        for (counter = 0; counter < votersAddresses.length; counter++) {\r\n           delete voters[votersAddresses[counter]];\r\n        }        \r\n        delete votersAddresses;\r\n        numberOfVoters = 0;\r\n    }\r\n    \r\n    /// @notice L'administrateur du vote enregistre une liste blanche d'lecteurs identifis par leur adresse Ethereum.\r\n    /// @dev onlyOwner pour que seul le owner du contract puisse enregistrer des lecteurs\r\n    /// @param _address l'adresse de l'lecteur\r\n    function registerVoters(address _address) public onlyOwner {\r\n        require(!voters[_address].isRegistered, \"The address is already registered!\");\r\n        require(currentWorkflowStatus == WorkflowStatus.RegisteringVoters, \"Too late to register voters\");\r\n        votersAddresses.push(_address);\r\n        voters[_address] = Voter(true, false, 0);\r\n        numberOfVoters++;\r\n    }\r\n    \r\n    /// @notice Cette fonction permettra  la Dapp de lister visuellement tous les votants dclars\r\n    function getVotersAdresses() public view returns(address[] memory){\r\n        return votersAddresses;\r\n    }\r\n    \r\n    /// @notice Cette fonction permettra  la Dapp de savoir si l'adresse est enregistre et si elle a dj vot\r\n    function getVoter() public view returns(Voter memory) {\r\n        return voters[msg.sender];\r\n    }\r\n    \r\n    /// @notice L'administrateur du vote commence la session d'enregistrement de la proposition.\r\n    function startProposalsRegistration() public onlyOwner {\r\n        require(currentWorkflowStatus == WorkflowStatus.RegisteringVoters,\r\n                \"You can only start Proposals Registration once\");\r\n        require(numberOfVoters > 2, \"You should register some voters first (at least 3)\");\r\n        setNewWorkflowStatus(WorkflowStatus.ProposalsRegistrationStarted);\r\n        emit ProposalsRegistrationStarted();\r\n    }\r\n\r\n    /// @notice Les lecteurs inscrits sont autoriss  enregistrer leurs propositions\r\n    /// pendant que la session d'enregistrement est active.\r\n    function registerProposal(string memory proposalDescription) public {\r\n        require(proposals.length<100, \"Sorry we cannot accept more than 100 proposals\");\r\n        require(voters[msg.sender].isRegistered, \"Sorry you can't participate to this vote\");\r\n        require(currentWorkflowStatus == WorkflowStatus.ProposalsRegistrationStarted,\r\n                \"Proposals Registration has not started or is ended\");\r\n        proposals.push(Proposal(proposalDescription, 0));\r\n        emit ProposalRegistered(proposals.length);\r\n    }\r\n\r\n    /// @notice Cette fonction permettra  la Dapp de lister visuellement toutes les propositions effectues\r\n    function getProposals() public view returns(Proposal[] memory){\r\n        return proposals;\r\n    }\r\n\r\n    /// @notice L'administrateur de vote met fin  la session d'enregistrement des propositions.\r\n    function stopProposalsRegistration() public onlyOwner {\r\n        require(currentWorkflowStatus == WorkflowStatus.ProposalsRegistrationStarted,\r\n                \"You can only stop Proposals Registration once\");\r\n        setNewWorkflowStatus(WorkflowStatus.ProposalsRegistrationEnded);\r\n        emit ProposalsRegistrationEnded();\r\n    }\r\n    \r\n    /// @notice L'administrateur du vote commence la session de vote.\r\n    function startVotingSession() public onlyOwner {\r\n        require(currentWorkflowStatus == WorkflowStatus.ProposalsRegistrationEnded,\r\n                \"You can only start Voting Session once Proposals Registration has been stopped\");\r\n        setNewWorkflowStatus(WorkflowStatus.VotingSessionStarted);\r\n        emit VotingSessionStarted();\r\n    }\r\n\r\n    /// @notice Les lecteurs inscrits votent pour leurs propositions prfres.\r\n    function voteForProposal(uint _proposalId) public {\r\n        require(voters[msg.sender].isRegistered, \"Sorry you can't participate to this vote\");\r\n        require(!voters[msg.sender].hasVoted, \"Sorry you cannot vote more than once\");\r\n        require(currentWorkflowStatus == WorkflowStatus.VotingSessionStarted,\r\n                \"Voting Session has not started or is ended\");\r\n        voters[msg.sender].hasVoted = true;\r\n        voters[msg.sender].votedProposalId = _proposalId;\r\n        proposals[_proposalId].voteCount++; // increment the vote count for this proposal id\r\n        emit Voted(msg.sender, _proposalId);\r\n    }\r\n\r\n    /// @notice L'administrateur du vote met fin  la session de vote.\r\n    function stopVotingSession() public onlyOwner {\r\n        require(currentWorkflowStatus == WorkflowStatus.VotingSessionStarted, \"You can only stop Voting Session once\");\r\n        setNewWorkflowStatus(WorkflowStatus.VotingSessionEnded);\r\n        emit VotingSessionEnded();\r\n    }\r\n\r\n    /// @notice L'administrateur du vote comptabilise les votes.\r\n    function countVotes() public onlyOwner returns (string memory) {\r\n        require(currentWorkflowStatus == WorkflowStatus.VotingSessionEnded, \"You should stop Voting Session first\");\r\n        uint winningProposalId;\r\n        for (uint currentProposalId = 0; currentProposalId < proposals.length; currentProposalId++) {\r\n            if (proposals[currentProposalId].voteCount > winningProposalId) {\r\n                winningProposalId = currentProposalId;\r\n            }\r\n        }        \r\n        winningProposal = proposals[winningProposalId];\r\n        setNewWorkflowStatus(WorkflowStatus.VotesTallied);\r\n        emit VotesTallied();\r\n    }\r\n    \r\n    /// @notice Le vote n'est pas secret ; chaque lecteur peut voir les votes des autres.\r\n    function getVote(address voterAddress) public view returns (uint) {\r\n        require(voters[msg.sender].isRegistered, \"Sorry you're not a voter'\");\r\n        require(voters[voterAddress].votedProposalId > 0, \"This voter has not already voted\");\r\n        return  voters[msg.sender].votedProposalId;\r\n    }\r\n\r\n    /// @notice passage d'un statut  l'autre\r\n    function setNewWorkflowStatus (WorkflowStatus newWorkflowStatus) private {\r\n        WorkflowStatus previousWorkflowStatus = currentWorkflowStatus;\r\n        currentWorkflowStatus = newWorkflowStatus;\r\n        emit WorkflowStatusChange(previousWorkflowStatus, newWorkflowStatus);\r\n    }\r\n    \r\n    /// @notice Renvoit le statut courant du workflow\r\n    function getCurrentWorkflowStatus() public view returns (WorkflowStatus) {\r\n        return  currentWorkflowStatus;\r\n    }\r\n}",
  "sourcePath": "C:/Appli.crypto/Alyra-Challenges/system-de-vote/contracts/voting.sol",
  "compiler": {
    "name": "solc",
    "version": "0.6.11+commit.5ef660b1.Emscripten.clang"
  },
  "schemaVersion": "3.4.1",
  "updatedAt": "2021-07-04T16:24:02.442Z",
  "networkType": "ethereum",
  "devdoc": {
    "author": "Jrme Gauthier",
    "details": "Par rapport  l'nonc initial j'ai simplement ajout la fonction resetVote() accessible par le owner du contract seulement",
    "kind": "dev",
    "methods": {
      "owner()": {
        "details": "Returns the address of the current owner."
      },
      "registerVoters(address)": {
        "details": "onlyOwner pour que seul le owner du contract puisse enregistrer des lecteurs",
        "params": {
          "_address": "l'adresse de l'lecteur"
        }
      },
      "renounceOwnership()": {
        "details": "Leaves the contract without owner. It will not be possible to call `onlyOwner` functions anymore. Can only be called by the current owner. NOTE: Renouncing ownership will leave the contract without an owner, thereby removing any functionality that is only available to the owner."
      },
      "transferOwnership(address)": {
        "details": "Transfers ownership of the contract to a new account (`newOwner`). Can only be called by the current owner."
      }
    },
    "title": "Formation Alyra \"Dveloppeur Blockchain\" - Dfi - Systme de vote",
    "version": 1
  },
  "userdoc": {
    "kind": "user",
    "methods": {
      "countVotes()": {
        "notice": "L'administrateur du vote comptabilise les votes."
      },
      "getCurrentWorkflowStatus()": {
        "notice": "Renvoit le statut courant du workflow"
      },
      "getProposals()": {
        "notice": "Cette fonction permettra  la Dapp de lister visuellement toutes les propositions effectues"
      },
      "getVote(address)": {
        "notice": "Le vote n'est pas secret ; chaque lecteur peut voir les votes des autres."
      },
      "getVoter()": {
        "notice": "Cette fonction permettra  la Dapp de savoir si l'adresse est enregistre et si elle a dj vot"
      },
      "getVotersAdresses()": {
        "notice": "Cette fonction permettra  la Dapp de lister visuellement tous les votants dclars"
      },
      "registerProposal(string)": {
        "notice": "Les lecteurs inscrits sont autoriss  enregistrer leurs propositions pendant que la session d'enregistrement est active."
      },
      "registerVoters(address)": {
        "notice": "L'administrateur du vote enregistre une liste blanche d'lecteurs identifis par leur adresse Ethereum."
      },
      "startProposalsRegistration()": {
        "notice": "L'administrateur du vote commence la session d'enregistrement de la proposition."
      },
      "startVotingSession()": {
        "notice": "L'administrateur du vote commence la session de vote."
      },
      "stopProposalsRegistration()": {
        "notice": "L'administrateur de vote met fin  la session d'enregistrement des propositions."
      },
      "stopVotingSession()": {
        "notice": "L'administrateur du vote met fin  la session de vote."
      },
      "voteForProposal(uint256)": {
        "notice": "Les lecteurs inscrits votent pour leurs propositions prfres."
      }
    },
    "notice": "Mise en oeuvre d'un systme de vote simple",
    "version": 1
  }
}