{
  "contractName": "Voting",
  "abi": [
    {
      "anonymous": false,
      "inputs": [
        {
          "indexed": true,
          "internalType": "address",
          "name": "previousOwner",
          "type": "address"
        },
        {
          "indexed": true,
          "internalType": "address",
          "name": "newOwner",
          "type": "address"
        }
      ],
      "name": "OwnershipTransferred",
      "type": "event"
    },
    {
      "anonymous": false,
      "inputs": [
        {
          "indexed": false,
          "internalType": "uint256",
          "name": "proposalId",
          "type": "uint256"
        }
      ],
      "name": "ProposalRegistered",
      "type": "event"
    },
    {
      "anonymous": false,
      "inputs": [],
      "name": "ProposalsRegistrationEnded",
      "type": "event"
    },
    {
      "anonymous": false,
      "inputs": [],
      "name": "ProposalsRegistrationStarted",
      "type": "event"
    },
    {
      "anonymous": false,
      "inputs": [
        {
          "indexed": false,
          "internalType": "address",
          "name": "voter",
          "type": "address"
        },
        {
          "indexed": false,
          "internalType": "uint256",
          "name": "proposalId",
          "type": "uint256"
        }
      ],
      "name": "Voted",
      "type": "event"
    },
    {
      "anonymous": false,
      "inputs": [],
      "name": "VotesTallied",
      "type": "event"
    },
    {
      "anonymous": false,
      "inputs": [],
      "name": "VotingSessionEnded",
      "type": "event"
    },
    {
      "anonymous": false,
      "inputs": [],
      "name": "VotingSessionStarted",
      "type": "event"
    },
    {
      "anonymous": false,
      "inputs": [
        {
          "indexed": false,
          "internalType": "enum Voting.WorkflowStatus",
          "name": "previousStatus",
          "type": "uint8"
        },
        {
          "indexed": false,
          "internalType": "enum Voting.WorkflowStatus",
          "name": "newStatus",
          "type": "uint8"
        }
      ],
      "name": "WorkflowStatusChange",
      "type": "event"
    },
    {
      "inputs": [],
      "name": "owner",
      "outputs": [
        {
          "internalType": "address",
          "name": "",
          "type": "address"
        }
      ],
      "stateMutability": "view",
      "type": "function",
      "constant": true
    },
    {
      "inputs": [],
      "name": "renounceOwnership",
      "outputs": [],
      "stateMutability": "nonpayable",
      "type": "function"
    },
    {
      "inputs": [
        {
          "internalType": "address",
          "name": "newOwner",
          "type": "address"
        }
      ],
      "name": "transferOwnership",
      "outputs": [],
      "stateMutability": "nonpayable",
      "type": "function"
    },
    {
      "inputs": [],
      "name": "winningProposal",
      "outputs": [
        {
          "internalType": "string",
          "name": "description",
          "type": "string"
        },
        {
          "internalType": "uint256",
          "name": "voteCount",
          "type": "uint256"
        }
      ],
      "stateMutability": "view",
      "type": "function",
      "constant": true
    },
    {
      "inputs": [],
      "name": "resetVote",
      "outputs": [],
      "stateMutability": "nonpayable",
      "type": "function"
    },
    {
      "inputs": [
        {
          "internalType": "address",
          "name": "_address",
          "type": "address"
        }
      ],
      "name": "registerVoters",
      "outputs": [],
      "stateMutability": "nonpayable",
      "type": "function"
    },
    {
      "inputs": [],
      "name": "getVotersAdresses",
      "outputs": [
        {
          "internalType": "address[]",
          "name": "",
          "type": "address[]"
        }
      ],
      "stateMutability": "view",
      "type": "function",
      "constant": true
    },
    {
      "inputs": [],
      "name": "startProposalsRegistration",
      "outputs": [],
      "stateMutability": "nonpayable",
      "type": "function"
    },
    {
      "inputs": [
        {
          "internalType": "string",
          "name": "proposalDescription",
          "type": "string"
        }
      ],
      "name": "registerProposal",
      "outputs": [],
      "stateMutability": "nonpayable",
      "type": "function"
    },
    {
      "inputs": [],
      "name": "getProposals",
      "outputs": [
        {
          "components": [
            {
              "internalType": "string",
              "name": "description",
              "type": "string"
            },
            {
              "internalType": "uint256",
              "name": "voteCount",
              "type": "uint256"
            }
          ],
          "internalType": "struct Voting.Proposal[]",
          "name": "",
          "type": "tuple[]"
        }
      ],
      "stateMutability": "view",
      "type": "function",
      "constant": true
    },
    {
      "inputs": [],
      "name": "stopProposalsRegistration",
      "outputs": [],
      "stateMutability": "nonpayable",
      "type": "function"
    },
    {
      "inputs": [],
      "name": "startVotingSession",
      "outputs": [],
      "stateMutability": "nonpayable",
      "type": "function"
    },
    {
      "inputs": [
        {
          "internalType": "uint256",
          "name": "_proposalId",
          "type": "uint256"
        }
      ],
      "name": "voteForProposal",
      "outputs": [],
      "stateMutability": "nonpayable",
      "type": "function"
    },
    {
      "inputs": [],
      "name": "stopVotingSession",
      "outputs": [],
      "stateMutability": "nonpayable",
      "type": "function"
    },
    {
      "inputs": [],
      "name": "countVotes",
      "outputs": [
        {
          "internalType": "string",
          "name": "",
          "type": "string"
        }
      ],
      "stateMutability": "nonpayable",
      "type": "function"
    },
    {
      "inputs": [
        {
          "internalType": "address",
          "name": "voterAddress",
          "type": "address"
        }
      ],
      "name": "getVote",
      "outputs": [
        {
          "internalType": "uint256",
          "name": "",
          "type": "uint256"
        }
      ],
      "stateMutability": "view",
      "type": "function",
      "constant": true
    },
    {
      "inputs": [],
      "name": "getCurrentWorkflowStatus",
      "outputs": [
        {
          "internalType": "enum Voting.WorkflowStatus",
          "name": "",
          "type": "uint8"
        }
      ],
      "stateMutability": "view",
      "type": "function",
      "constant": true
    }
  ],
  "bytecode": "0x608060405260008060146101000a81548160ff021916908360058111156200002357fe5b02179055503480156200003557600080fd5b50600062000051620000f5640100000000026401000000009004565b9050806000806101000a81548173ffffffffffffffffffffffffffffffffffffffff021916908373ffffffffffffffffffffffffffffffffffffffff1602179055508073ffffffffffffffffffffffffffffffffffffffff16600073ffffffffffffffffffffffffffffffffffffffff167f8be0079c531659141344cd1fd0a4f28419497f9722a3daafe3b4186f6b6457e060405160405180910390a350620000fd565b600033905090565b612b28806200010d6000396000f3fe608060405234801561001057600080fd5b5060043610610128576000357c0100000000000000000000000000000000000000000000000000000000900480638d337b81116100bf578063bd0434d41161008e578063bd0434d414610254578063e09b8c7914610272578063ed8a16081461027c578063ee74c67814610298578063f2fde38b146102a257610128565b80638d337b81146101ca5780638da5cb5b146101fa578063af7c41a014610218578063b647990a1461023657610128565b806353302887116100fb5780635330288714610179578063609ff1bd1461018357806362564c48146101a2578063715018a6146101c057610128565b8063045c6ce01461012d57806317a0ad8e146101495780632f95355b14610153578063329a8cfa1461016f575b600080fd5b61014760048036038101906101429190611cf7565b6102be565b005b610151610551565b005b61016d60048036038101906101689190611cb6565b610687565b005b61017761086f565b005b610181610a35565b005b61018b610b6b565b60405161019992919061266a565b60405180910390f35b6101aa610c15565b6040516101b791906125e2565b60405180910390f35b6101c8610d20565b005b6101e460048036038101906101df9190611c8d565b610e75565b6040516101f191906128ba565b60405180910390f35b610202610fd5565b60405161020f919061257c565b60405180910390f35b610220610ffe565b60405161022d9190612604565b60405180910390f35b61023e611014565b60405161024b9190612648565b60405180910390f35b61025c6111ed565b60405161026991906125c0565b60405180910390f35b61027a61127b565b005b61029660048036038101906102919190611c8d565b6113f6565b005b6102a06116aa565b005b6102bc60048036038101906102b79190611c8d565b6117e0565b005b600560003373ffffffffffffffffffffffffffffffffffffffff1673ffffffffffffffffffffffffffffffffffffffff16815260200190815260200160002060000160009054906101000a900460ff1661034d576040517f08c379a00000000000000000000000000000000000000000000000000000000081526004016103449061275a565b60405180910390fd5b600560003373ffffffffffffffffffffffffffffffffffffffff1673ffffffffffffffffffffffffffffffffffffffff16815260200190815260200160002060000160019054906101000a900460ff16156103dd576040517f08c379a00000000000000000000000000000000000000000000000000000000081526004016103d4906127da565b60405180910390fd5b600360058111156103ea57fe5b600060149054906101000a900460ff16600581111561040557fe5b14610445576040517f08c379a000000000000000000000000000000000000000000000000000000000815260040161043c9061279a565b60405180910390fd5b6001600560003373ffffffffffffffffffffffffffffffffffffffff1673ffffffffffffffffffffffffffffffffffffffff16815260200190815260200160002060000160016101000a81548160ff02191690831515021790555080600560003373ffffffffffffffffffffffffffffffffffffffff1673ffffffffffffffffffffffffffffffffffffffff16815260200190815260200160002060010181905550600381815481106104f457fe5b9060005260206000209060020201600101600081548092919060010191905055507f4d99b957a2bc29a30ebd96a7be8e68fe50a3c701db28a91436490b7d53870ca43382604051610546929190612597565b60405180910390a150565b6105596119a4565b73ffffffffffffffffffffffffffffffffffffffff166000809054906101000a900473ffffffffffffffffffffffffffffffffffffffff1673ffffffffffffffffffffffffffffffffffffffff16146105e7576040517f08c379a00000000000000000000000000000000000000000000000000000000081526004016105de9061287a565b60405180910390fd5b600360058111156105f457fe5b600060149054906101000a900460ff16600581111561060f57fe5b1461064f576040517f08c379a00000000000000000000000000000000000000000000000000000000081526004016106469061281a565b60405180910390fd5b61065960046119ac565b7fc379d349a6301baf50fb2f98d829f4ae10b1cdb7c66f4e4d8117302df7b8cd4c60405160405180910390a1565b6064600380549050106106cf576040517f08c379a00000000000000000000000000000000000000000000000000000000081526004016106c69061285a565b60405180910390fd5b600560003373ffffffffffffffffffffffffffffffffffffffff1673ffffffffffffffffffffffffffffffffffffffff16815260200190815260200160002060000160009054906101000a900460ff1661075e576040517f08c379a00000000000000000000000000000000000000000000000000000000081526004016107559061275a565b60405180910390fd5b6001600581111561076b57fe5b600060149054906101000a900460ff16600581111561078657fe5b146107c6576040517f08c379a00000000000000000000000000000000000000000000000000000000081526004016107bd906126ba565b60405180910390fd5b60036040518060400160405280838152602001600081525090806001815401808255809150506001900390600052602060002090600202016000909190919091506000820151816000019080519060200190610823929190611a1f565b506020820151816001015550507f92e393e9b54e2f801d3ea4beb0c5e71a21cc34a5d34b77d0fb8a3aa1650dc18f60038054905060405161086491906128ba565b60405180910390a150565b6108776119a4565b73ffffffffffffffffffffffffffffffffffffffff166000809054906101000a900473ffffffffffffffffffffffffffffffffffffffff1673ffffffffffffffffffffffffffffffffffffffff1614610905576040517f08c379a00000000000000000000000000000000000000000000000000000000081526004016108fc9061287a565b60405180910390fd5b60008060146101000a81548160ff0219169083600581111561092357fe5b021790555060016000808201600061093b9190611a9f565b60018201600090555050600360006109539190611ae7565b60008090505b600480549050811015610a1c57600560006004838154811061097757fe5b9060005260206000200160009054906101000a900473ffffffffffffffffffffffffffffffffffffffff1673ffffffffffffffffffffffffffffffffffffffff1673ffffffffffffffffffffffffffffffffffffffff168152602001908152602001600020600080820160006101000a81549060ff02191690556000820160016101000a81549060ff0219169055600182016000905550508080600101915050610959565b60046000610a2a9190611b0b565b600060068190555050565b610a3d6119a4565b73ffffffffffffffffffffffffffffffffffffffff166000809054906101000a900473ffffffffffffffffffffffffffffffffffffffff1673ffffffffffffffffffffffffffffffffffffffff1614610acb576040517f08c379a0000000000000000000000000000000000000000000000000000000008152600401610ac29061287a565b60405180910390fd5b60016005811115610ad857fe5b600060149054906101000a900460ff166005811115610af357fe5b14610b33576040517f08c379a0000000000000000000000000000000000000000000000000000000008152600401610b2a9061289a565b60405180910390fd5b610b3d60026119ac565b7f240cb87b2e4df4c318e72bd714d45a9cad60249e883ff56b1fffd83a4595a8fa60405160405180910390a1565b6001806000018054600181600116156101000203166002900480601f016020809104026020016040519081016040528092919081815260200182805460018160011615610100020316600290048015610c055780601f10610bda57610100808354040283529160200191610c05565b820191906000526020600020905b815481529060010190602001808311610be857829003601f168201915b5050505050908060010154905082565b60606003805480602002602001604051908101604052809291908181526020016000905b82821015610d175783829060005260206000209060020201604051806040016040529081600082018054600181600116156101000203166002900480601f016020809104026020016040519081016040528092919081815260200182805460018160011615610100020316600290048015610cf55780601f10610cca57610100808354040283529160200191610cf5565b820191906000526020600020905b815481529060010190602001808311610cd857829003601f168201915b5050505050815260200160018201548152505081526020019060010190610c39565b50505050905090565b610d286119a4565b73ffffffffffffffffffffffffffffffffffffffff166000809054906101000a900473ffffffffffffffffffffffffffffffffffffffff1673ffffffffffffffffffffffffffffffffffffffff1614610db6576040517f08c379a0000000000000000000000000000000000000000000000000000000008152600401610dad9061287a565b60405180910390fd5b600073ffffffffffffffffffffffffffffffffffffffff166000809054906101000a900473ffffffffffffffffffffffffffffffffffffffff1673ffffffffffffffffffffffffffffffffffffffff167f8be0079c531659141344cd1fd0a4f28419497f9722a3daafe3b4186f6b6457e060405160405180910390a360008060006101000a81548173ffffffffffffffffffffffffffffffffffffffff021916908373ffffffffffffffffffffffffffffffffffffffff160217905550565b6000600560003373ffffffffffffffffffffffffffffffffffffffff1673ffffffffffffffffffffffffffffffffffffffff16815260200190815260200160002060000160009054906101000a900460ff16610f06576040517f08c379a0000000000000000000000000000000000000000000000000000000008152600401610efd906127ba565b60405180910390fd5b6000600560008473ffffffffffffffffffffffffffffffffffffffff1673ffffffffffffffffffffffffffffffffffffffff1681526020019081526020016000206001015411610f8b576040517f08c379a0000000000000000000000000000000000000000000000000000000008152600401610f829061283a565b60405180910390fd5b600560003373ffffffffffffffffffffffffffffffffffffffff1673ffffffffffffffffffffffffffffffffffffffff168152602001908152602001600020600101549050919050565b60008060009054906101000a900473ffffffffffffffffffffffffffffffffffffffff16905090565b60008060149054906101000a900460ff16905090565b606061101e6119a4565b73ffffffffffffffffffffffffffffffffffffffff166000809054906101000a900473ffffffffffffffffffffffffffffffffffffffff1673ffffffffffffffffffffffffffffffffffffffff16146110ac576040517f08c379a00000000000000000000000000000000000000000000000000000000081526004016110a39061287a565b60405180910390fd5b600460058111156110b957fe5b600060149054906101000a900460ff1660058111156110d457fe5b14611114576040517f08c379a000000000000000000000000000000000000000000000000000000000815260040161110b9061277a565b60405180910390fd5b600080600090505b60038054905081101561116057816003828154811061113757fe5b9060005260206000209060020201600101541115611153578091505b808060010191505061111c565b506003818154811061116e57fe5b90600052602060002090600202016001600082018160000190805460018160011615610100020316600290046111a5929190611b2c565b50600182015481600101559050506111bd60056119ac565b7f0e5e95ff8725ab3e7a4b6b59998a4c344c2aa8d1485f5e60cb7f337768e6134760405160405180910390a15090565b6060600480548060200260200160405190810160405280929190818152602001828054801561127157602002820191906000526020600020905b8160009054906101000a900473ffffffffffffffffffffffffffffffffffffffff1673ffffffffffffffffffffffffffffffffffffffff1681526020019060010190808311611227575b5050505050905090565b6112836119a4565b73ffffffffffffffffffffffffffffffffffffffff166000809054906101000a900473ffffffffffffffffffffffffffffffffffffffff1673ffffffffffffffffffffffffffffffffffffffff1614611311576040517f08c379a00000000000000000000000000000000000000000000000000000000081526004016113089061287a565b60405180910390fd5b6000600581111561131e57fe5b600060149054906101000a900460ff16600581111561133957fe5b14611379576040517f08c379a00000000000000000000000000000000000000000000000000000000081526004016113709061273a565b60405180910390fd5b6002600654116113be576040517f08c379a00000000000000000000000000000000000000000000000000000000081526004016113b5906127fa565b60405180910390fd5b6113c860016119ac565b7f344c25562921d075a298d34b6dd1fd00d36ff293974539dfd4a8c625d9f0064c60405160405180910390a1565b6113fe6119a4565b73ffffffffffffffffffffffffffffffffffffffff166000809054906101000a900473ffffffffffffffffffffffffffffffffffffffff1673ffffffffffffffffffffffffffffffffffffffff161461148c576040517f08c379a00000000000000000000000000000000000000000000000000000000081526004016114839061287a565b60405180910390fd5b600560008273ffffffffffffffffffffffffffffffffffffffff1673ffffffffffffffffffffffffffffffffffffffff16815260200190815260200160002060000160009054906101000a900460ff161561151c576040517f08c379a00000000000000000000000000000000000000000000000000000000081526004016115139061269a565b60405180910390fd5b6000600581111561152957fe5b600060149054906101000a900460ff16600581111561154457fe5b14611584576040517f08c379a000000000000000000000000000000000000000000000000000000000815260040161157b906126da565b60405180910390fd5b6004819080600181540180825580915050600190039060005260206000200160009091909190916101000a81548173ffffffffffffffffffffffffffffffffffffffff021916908373ffffffffffffffffffffffffffffffffffffffff16021790555060405180606001604052806001151581526020016000151581526020016000815250600560008373ffffffffffffffffffffffffffffffffffffffff1673ffffffffffffffffffffffffffffffffffffffff16815260200190815260200160002060008201518160000160006101000a81548160ff02191690831515021790555060208201518160000160016101000a81548160ff0219169083151502179055506040820151816001015590505060066000815480929190600101919050555050565b6116b26119a4565b73ffffffffffffffffffffffffffffffffffffffff166000809054906101000a900473ffffffffffffffffffffffffffffffffffffffff1673ffffffffffffffffffffffffffffffffffffffff1614611740576040517f08c379a00000000000000000000000000000000000000000000000000000000081526004016117379061287a565b60405180910390fd5b6002600581111561174d57fe5b600060149054906101000a900460ff16600581111561176857fe5b146117a8576040517f08c379a000000000000000000000000000000000000000000000000000000000815260040161179f9061271a565b60405180910390fd5b6117b260036119ac565b7f1b8e19a458c1bcd88553332c518cc5c4e2d5793e712ee766d4f1c14f672ef1f560405160405180910390a1565b6117e86119a4565b73ffffffffffffffffffffffffffffffffffffffff166000809054906101000a900473ffffffffffffffffffffffffffffffffffffffff1673ffffffffffffffffffffffffffffffffffffffff1614611876576040517f08c379a000000000000000000000000000000000000000000000000000000000815260040161186d9061287a565b60405180910390fd5b600073ffffffffffffffffffffffffffffffffffffffff168173ffffffffffffffffffffffffffffffffffffffff1614156118e6576040517f08c379a00000000000000000000000000000000000000000000000000000000081526004016118dd906126fa565b60405180910390fd5b8073ffffffffffffffffffffffffffffffffffffffff166000809054906101000a900473ffffffffffffffffffffffffffffffffffffffff1673ffffffffffffffffffffffffffffffffffffffff167f8be0079c531659141344cd1fd0a4f28419497f9722a3daafe3b4186f6b6457e060405160405180910390a3806000806101000a81548173ffffffffffffffffffffffffffffffffffffffff021916908373ffffffffffffffffffffffffffffffffffffffff16021790555050565b600033905090565b60008060149054906101000a900460ff16905081600060146101000a81548160ff021916908360058111156119dd57fe5b02179055507f0a97a4ee45751e2abf3e4fc8946939630b11b371ea8ae39ccdc3056e98f5cc3f8183604051611a1392919061261f565b60405180910390a15050565b828054600181600116156101000203166002900490600052602060002090601f016020900481019282601f10611a6057805160ff1916838001178555611a8e565b82800160010185558215611a8e579182015b82811115611a8d578251825591602001919060010190611a72565b5b509050611a9b9190611bb3565b5090565b50805460018160011615610100020316600290046000825580601f10611ac55750611ae4565b601f016020900490600052602060002090810190611ae39190611bb3565b5b50565b5080546000825560020290600052602060002090810190611b089190611bd8565b50565b5080546000825590600052602060002090810190611b299190611bb3565b50565b828054600181600116156101000203166002900490600052602060002090601f016020900481019282601f10611b655780548555611ba2565b82800160010185558215611ba257600052602060002091601f016020900482015b82811115611ba1578254825591600101919060010190611b86565b5b509050611baf9190611bb3565b5090565b611bd591905b80821115611bd1576000816000905550600101611bb9565b5090565b90565b611c0c91905b80821115611c085760008082016000611bf79190611a9f565b600182016000905550600201611bde565b5090565b90565b600081359050611c1e81612ac4565b92915050565b600082601f830112611c3557600080fd5b8135611c48611c4382612902565b6128d5565b91508082526020830160208301858383011115611c6457600080fd5b611c6f838284612a64565b50505092915050565b600081359050611c8781612adb565b92915050565b600060208284031215611c9f57600080fd5b6000611cad84828501611c0f565b91505092915050565b600060208284031215611cc857600080fd5b600082013567ffffffffffffffff811115611ce257600080fd5b611cee84828501611c24565b91505092915050565b600060208284031215611d0957600080fd5b6000611d1784828501611c78565b91505092915050565b6000611d2c8383611d5b565b60208301905092915050565b6000611d448383612521565b905092915050565b611d5581612a1c565b82525050565b611d64816129cd565b82525050565b611d73816129cd565b82525050565b6000611d848261294e565b611d8e8185612989565b9350611d998361292e565b8060005b83811015611dca578151611db18882611d20565b9750611dbc8361296f565b925050600181019050611d9d565b5085935050505092915050565b6000611de282612959565b611dec818561299a565b935083602082028501611dfe8561293e565b8060005b85811015611e3a5784840389528151611e1b8582611d38565b9450611e268361297c565b925060208a01995050600181019050611e02565b50829750879550505050505092915050565b611e5581612a2e565b82525050565b6000611e6682612964565b611e7081856129ab565b9350611e80818560208601612a73565b611e8981612aa6565b840191505092915050565b6000611e9f82612964565b611ea981856129bc565b9350611eb9818560208601612a73565b611ec281612aa6565b840191505092915050565b6000611eda6022836129bc565b91507f546865206164647265737320697320616c72656164792072656769737465726560008301527f64210000000000000000000000000000000000000000000000000000000000006020830152604082019050919050565b6000611f406032836129bc565b91507f50726f706f73616c7320526567697374726174696f6e20686173206e6f74207360008301527f746172746564206f7220697320656e64656400000000000000000000000000006020830152604082019050919050565b6000611fa6601b836129bc565b91507f546f6f206c61746520746f20726567697374657220766f7465727300000000006000830152602082019050919050565b6000611fe66026836129bc565b91507f4f776e61626c653a206e6577206f776e657220697320746865207a65726f206160008301527f64647265737300000000000000000000000000000000000000000000000000006020830152604082019050919050565b600061204c604e836129bc565b91507f596f752063616e206f6e6c7920737461727420566f74696e672053657373696f60008301527f6e206f6e63652050726f706f73616c7320526567697374726174696f6e20686160208301527f73206265656e2073746f707065640000000000000000000000000000000000006040830152606082019050919050565b60006120d8602e836129bc565b91507f596f752063616e206f6e6c792073746172742050726f706f73616c732052656760008301527f697374726174696f6e206f6e63650000000000000000000000000000000000006020830152604082019050919050565b600061213e6028836129bc565b91507f536f72727920796f752063616e277420706172746963697061746520746f207460008301527f68697320766f74650000000000000000000000000000000000000000000000006020830152604082019050919050565b60006121a46024836129bc565b91507f596f752073686f756c642073746f7020566f74696e672053657373696f6e206660008301527f69727374000000000000000000000000000000000000000000000000000000006020830152604082019050919050565b600061220a602a836129bc565b91507f566f74696e672053657373696f6e20686173206e6f742073746172746564206f60008301527f7220697320656e646564000000000000000000000000000000000000000000006020830152604082019050919050565b60006122706019836129bc565b91507f536f72727920796f75277265206e6f74206120766f74657227000000000000006000830152602082019050919050565b60006122b06024836129bc565b91507f536f72727920796f752063616e6e6f7420766f7465206d6f7265207468616e2060008301527f6f6e6365000000000000000000000000000000000000000000000000000000006020830152604082019050919050565b60006123166032836129bc565b91507f596f752073686f756c6420726567697374657220736f6d6520766f746572732060008301527f666972737420286174206c6561737420332900000000000000000000000000006020830152604082019050919050565b600061237c6025836129bc565b91507f596f752063616e206f6e6c792073746f7020566f74696e672053657373696f6e60008301527f206f6e63650000000000000000000000000000000000000000000000000000006020830152604082019050919050565b60006123e26020836129bc565b91507f5468697320766f74657220686173206e6f7420616c726561647920766f7465646000830152602082019050919050565b6000612422602e836129bc565b91507f536f7272792077652063616e6e6f7420616363657074206d6f7265207468616e60008301527f203130302070726f706f73616c730000000000000000000000000000000000006020830152604082019050919050565b60006124886020836129bc565b91507f4f776e61626c653a2063616c6c6572206973206e6f7420746865206f776e65726000830152602082019050919050565b60006124c8602d836129bc565b91507f596f752063616e206f6e6c792073746f702050726f706f73616c73205265676960008301527f7374726174696f6e206f6e6365000000000000000000000000000000000000006020830152604082019050919050565b6000604083016000830151848203600086015261253e8282611e5b565b9150506020830151612553602086018261255e565b508091505092915050565b61256781612a12565b82525050565b61257681612a12565b82525050565b60006020820190506125916000830184611d6a565b92915050565b60006040820190506125ac6000830185611d4c565b6125b9602083018461256d565b9392505050565b600060208201905081810360008301526125da8184611d79565b905092915050565b600060208201905081810360008301526125fc8184611dd7565b905092915050565b60006020820190506126196000830184611e4c565b92915050565b60006040820190506126346000830185611e4c565b6126416020830184611e4c565b9392505050565b600060208201905081810360008301526126628184611e94565b905092915050565b600060408201905081810360008301526126848185611e94565b9050612693602083018461256d565b9392505050565b600060208201905081810360008301526126b381611ecd565b9050919050565b600060208201905081810360008301526126d381611f33565b9050919050565b600060208201905081810360008301526126f381611f99565b9050919050565b6000602082019050818103600083015261271381611fd9565b9050919050565b600060208201905081810360008301526127338161203f565b9050919050565b60006020820190508181036000830152612753816120cb565b9050919050565b6000602082019050818103600083015261277381612131565b9050919050565b6000602082019050818103600083015261279381612197565b9050919050565b600060208201905081810360008301526127b3816121fd565b9050919050565b600060208201905081810360008301526127d381612263565b9050919050565b600060208201905081810360008301526127f3816122a3565b9050919050565b6000602082019050818103600083015261281381612309565b9050919050565b600060208201905081810360008301526128338161236f565b9050919050565b60006020820190508181036000830152612853816123d5565b9050919050565b6000602082019050818103600083015261287381612415565b9050919050565b600060208201905081810360008301526128938161247b565b9050919050565b600060208201905081810360008301526128b3816124bb565b9050919050565b60006020820190506128cf600083018461256d565b92915050565b6000604051905081810181811067ffffffffffffffff821117156128f857600080fd5b8060405250919050565b600067ffffffffffffffff82111561291957600080fd5b601f19601f8301169050602081019050919050565b6000819050602082019050919050565b6000819050602082019050919050565b600081519050919050565b600081519050919050565b600081519050919050565b6000602082019050919050565b6000602082019050919050565b600082825260208201905092915050565b600082825260208201905092915050565b600082825260208201905092915050565b600082825260208201905092915050565b60006129d8826129f2565b9050919050565b60008190506129ed82612ab7565b919050565b600073ffffffffffffffffffffffffffffffffffffffff82169050919050565b6000819050919050565b6000612a2782612a40565b9050919050565b6000612a39826129df565b9050919050565b6000612a4b82612a52565b9050919050565b6000612a5d826129f2565b9050919050565b82818337600083830152505050565b60005b83811015612a91578082015181840152602081019050612a76565b83811115612aa0576000848401525b50505050565b6000601f19601f8301169050919050565b60068110612ac157fe5b50565b612acd816129cd565b8114612ad857600080fd5b50565b612ae481612a12565b8114612aef57600080fd5b5056fea264697066735822122079081c08acb7dab753a1dac7df6b6af349f57d56c4d3f0c243c491ee469facf964736f6c634300060b0033",
  "immutableReferences": {},
  "source": "// SPDX-License-Identifier: MIT\r\npragma solidity 0.6.11;\r\npragma experimental ABIEncoderV2;\r\n\r\nimport \"@OpenZeppelin/contracts/access/Ownable.sol\";\r\n\r\n/// @title Formation Alyra \"Dveloppeur Blockchain\" - Dfi - Systme de vote\r\n/// @author Jrme Gauthier\r\n/// @notice Mise en oeuvre d'un systme de vote simple\r\n/// @dev Par rapport  l'nonc initial j'ai simplement ajout la fonction resetVote()\r\n/// accessible par le owner du contract seulement\r\ncontract Voting is Ownable {\r\n\r\n    struct Voter {\r\n        bool isRegistered;\r\n        bool hasVoted;\r\n        uint votedProposalId;\r\n    }\r\n\r\n    struct Proposal {\r\n        string description;\r\n        uint voteCount;\r\n    }\r\n    \r\n    enum WorkflowStatus {\r\n        RegisteringVoters,\r\n        ProposalsRegistrationStarted,\r\n        ProposalsRegistrationEnded,\r\n        VotingSessionStarted,\r\n        VotingSessionEnded,\r\n        VotesTallied\r\n    }\r\n    \r\n    WorkflowStatus currentWorkflowStatus = WorkflowStatus.RegisteringVoters;\r\n    Proposal public winningProposal; // Tout le monde peut vrifier la proposition gagnante\r\n    Proposal[] private proposals; // we will use votedProposalId as key \r\n    address[] private votersAddresses;\r\n    mapping(address => Voter) voters;\r\n    uint numberOfVoters;\r\n    \r\n    event ProposalsRegistrationStarted(); // ok used in startProposalsRegistration function\r\n    event ProposalsRegistrationEnded(); // ok used in stopProposalsRegistration function\r\n    event ProposalRegistered(uint proposalId); // ok used in registerProposal function \r\n    event VotingSessionStarted(); // ok used in startVotingSession function\r\n    event VotingSessionEnded(); // ok used in stopVotingSession function\r\n    event Voted (address voter, uint proposalId); // ok used in voteForProposal function\r\n    event VotesTallied(); // ok used in countVotes function\r\n    event WorkflowStatusChange(WorkflowStatus previousStatus, WorkflowStatus newStatus);// used in setNewWorkflowStatus\r\n\r\n    function resetVote () public onlyOwner {\r\n        currentWorkflowStatus = WorkflowStatus.RegisteringVoters;\r\n        delete winningProposal;\r\n        delete proposals;\r\n        // to reset a mapping we need to delete its values, we cannot use the direct delete command\r\n        uint counter;\r\n        for (counter = 0; counter < votersAddresses.length; counter++) {\r\n           delete voters[votersAddresses[counter]];\r\n        }        \r\n        delete votersAddresses;\r\n        numberOfVoters = 0;\r\n    }\r\n    \r\n    /// @notice L'administrateur du vote enregistre une liste blanche d'lecteurs identifis par leur adresse Ethereum.\r\n    /// @dev onlyOwner pour que seul le owner du contract puisse enregistrer des lecteurs\r\n    /// @param _address l'adresse de l'lecteur\r\n    function registerVoters(address _address) public onlyOwner {\r\n        require(!voters[_address].isRegistered, \"The address is already registered!\");\r\n        require(currentWorkflowStatus == WorkflowStatus.RegisteringVoters, \"Too late to register voters\");\r\n        votersAddresses.push(_address);\r\n        voters[_address] = Voter(true, false, 0);\r\n        numberOfVoters++;\r\n    }\r\n    \r\n    /// @notice Cette fonction permettra  la Dapp de lister visuellement tous les votants dclars\r\n    function getVotersAdresses() public view returns(address[] memory){\r\n        return votersAddresses;\r\n    }\r\n    \r\n    /// @notice L'administrateur du vote commence la session d'enregistrement de la proposition.\r\n    function startProposalsRegistration() public onlyOwner {\r\n        require(currentWorkflowStatus == WorkflowStatus.RegisteringVoters,\r\n                \"You can only start Proposals Registration once\");\r\n        require(numberOfVoters > 2, \"You should register some voters first (at least 3)\");\r\n        setNewWorkflowStatus(WorkflowStatus.ProposalsRegistrationStarted);\r\n        emit ProposalsRegistrationStarted();\r\n    }\r\n\r\n    /// @notice Les lecteurs inscrits sont autoriss  enregistrer leurs propositions\r\n    /// pendant que la session d'enregistrement est active.\r\n    function registerProposal(string memory proposalDescription) public {\r\n        require(proposals.length<100, \"Sorry we cannot accept more than 100 proposals\");\r\n        require(voters[msg.sender].isRegistered, \"Sorry you can't participate to this vote\");\r\n        require(currentWorkflowStatus == WorkflowStatus.ProposalsRegistrationStarted,\r\n                \"Proposals Registration has not started or is ended\");\r\n        proposals.push(Proposal(proposalDescription, 0));\r\n        emit ProposalRegistered(proposals.length);\r\n    }\r\n\r\n    /// @notice Cette fonction permettra  la Dapp de lister visuellement toutes les propositions effectues\r\n    function getProposals() public view returns(Proposal[] memory){\r\n        return proposals;\r\n    }\r\n\r\n    /// @notice L'administrateur de vote met fin  la session d'enregistrement des propositions.\r\n    function stopProposalsRegistration() public onlyOwner {\r\n        require(currentWorkflowStatus == WorkflowStatus.ProposalsRegistrationStarted,\r\n                \"You can only stop Proposals Registration once\");\r\n        setNewWorkflowStatus(WorkflowStatus.ProposalsRegistrationEnded);\r\n        emit ProposalsRegistrationEnded();\r\n    }\r\n    \r\n    /// @notice L'administrateur du vote commence la session de vote.\r\n    function startVotingSession() public onlyOwner {\r\n        require(currentWorkflowStatus == WorkflowStatus.ProposalsRegistrationEnded,\r\n                \"You can only start Voting Session once Proposals Registration has been stopped\");\r\n        setNewWorkflowStatus(WorkflowStatus.VotingSessionStarted);\r\n        emit VotingSessionStarted();\r\n    }\r\n\r\n    /// @notice Les lecteurs inscrits votent pour leurs propositions prfres.\r\n    function voteForProposal(uint _proposalId) public {\r\n        require(voters[msg.sender].isRegistered, \"Sorry you can't participate to this vote\");\r\n        require(!voters[msg.sender].hasVoted, \"Sorry you cannot vote more than once\");\r\n        require(currentWorkflowStatus == WorkflowStatus.VotingSessionStarted,\r\n                \"Voting Session has not started or is ended\");\r\n        voters[msg.sender].hasVoted = true;\r\n        voters[msg.sender].votedProposalId = _proposalId;\r\n        proposals[_proposalId].voteCount++; // increment the vote count for this proposal id\r\n        emit Voted(msg.sender, _proposalId);\r\n    }\r\n\r\n    /// @notice L'administrateur du vote met fin  la session de vote.\r\n    function stopVotingSession() public onlyOwner {\r\n        require(currentWorkflowStatus == WorkflowStatus.VotingSessionStarted, \"You can only stop Voting Session once\");\r\n        setNewWorkflowStatus(WorkflowStatus.VotingSessionEnded);\r\n        emit VotingSessionEnded();\r\n    }\r\n\r\n    /// @notice L'administrateur du vote comptabilise les votes.\r\n    function countVotes() public onlyOwner returns (string memory) {\r\n        require(currentWorkflowStatus == WorkflowStatus.VotingSessionEnded, \"You should stop Voting Session first\");\r\n        uint winningProposalId;\r\n        for (uint currentProposalId = 0; currentProposalId < proposals.length; currentProposalId++) {\r\n            if (proposals[currentProposalId].voteCount > winningProposalId) {\r\n                winningProposalId = currentProposalId;\r\n            }\r\n        }        \r\n        winningProposal = proposals[winningProposalId];\r\n        setNewWorkflowStatus(WorkflowStatus.VotesTallied);\r\n        emit VotesTallied();\r\n    }\r\n    \r\n    /// @notice Le vote n'est pas secret ; chaque lecteur peut voir les votes des autres.\r\n    function getVote(address voterAddress) public view returns (uint) {\r\n        require(voters[msg.sender].isRegistered, \"Sorry you're not a voter'\");\r\n        require(voters[voterAddress].votedProposalId > 0, \"This voter has not already voted\");\r\n        return  voters[msg.sender].votedProposalId;\r\n    }\r\n\r\n    /// @notice passage d'un statut  l'autre\r\n    function setNewWorkflowStatus (WorkflowStatus newWorkflowStatus) private {\r\n        WorkflowStatus previousWorkflowStatus = currentWorkflowStatus;\r\n        currentWorkflowStatus = newWorkflowStatus;\r\n        emit WorkflowStatusChange(previousWorkflowStatus, newWorkflowStatus);\r\n    }\r\n    \r\n    /// @notice Renvoit le statut courant du workflow\r\n    function getCurrentWorkflowStatus() public view returns (WorkflowStatus) {\r\n        return  currentWorkflowStatus;\r\n    }\r\n}",
  "sourcePath": "C:/Appli.crypto/Alyra-Challenges/system-de-vote/contracts/voting.sol",
  "compiler": {
    "name": "solc",
    "version": "0.6.11+commit.5ef660b1.Emscripten.clang"
  },
  "schemaVersion": "3.4.1",
  "updatedAt": "2021-07-02T05:54:48.551Z",
  "networkType": "ethereum",
  "devdoc": {
    "author": "Jrme Gauthier",
    "details": "Par rapport  l'nonc initial j'ai simplement ajout la fonction resetVote() accessible par le owner du contract seulement",
    "kind": "dev",
    "methods": {
      "owner()": {
        "details": "Returns the address of the current owner."
      },
      "registerVoters(address)": {
        "details": "onlyOwner pour que seul le owner du contract puisse enregistrer des lecteurs",
        "params": {
          "_address": "l'adresse de l'lecteur"
        }
      },
      "renounceOwnership()": {
        "details": "Leaves the contract without owner. It will not be possible to call `onlyOwner` functions anymore. Can only be called by the current owner. NOTE: Renouncing ownership will leave the contract without an owner, thereby removing any functionality that is only available to the owner."
      },
      "transferOwnership(address)": {
        "details": "Transfers ownership of the contract to a new account (`newOwner`). Can only be called by the current owner."
      }
    },
    "title": "Formation Alyra \"Dveloppeur Blockchain\" - Dfi - Systme de vote",
    "version": 1
  },
  "userdoc": {
    "kind": "user",
    "methods": {
      "countVotes()": {
        "notice": "L'administrateur du vote comptabilise les votes."
      },
      "getCurrentWorkflowStatus()": {
        "notice": "Renvoit le statut courant du workflow"
      },
      "getProposals()": {
        "notice": "Cette fonction permettra  la Dapp de lister visuellement toutes les propositions effectues"
      },
      "getVote(address)": {
        "notice": "Le vote n'est pas secret ; chaque lecteur peut voir les votes des autres."
      },
      "getVotersAdresses()": {
        "notice": "Cette fonction permettra  la Dapp de lister visuellement tous les votants dclars"
      },
      "registerProposal(string)": {
        "notice": "Les lecteurs inscrits sont autoriss  enregistrer leurs propositions pendant que la session d'enregistrement est active."
      },
      "registerVoters(address)": {
        "notice": "L'administrateur du vote enregistre une liste blanche d'lecteurs identifis par leur adresse Ethereum."
      },
      "startProposalsRegistration()": {
        "notice": "L'administrateur du vote commence la session d'enregistrement de la proposition."
      },
      "startVotingSession()": {
        "notice": "L'administrateur du vote commence la session de vote."
      },
      "stopProposalsRegistration()": {
        "notice": "L'administrateur de vote met fin  la session d'enregistrement des propositions."
      },
      "stopVotingSession()": {
        "notice": "L'administrateur du vote met fin  la session de vote."
      },
      "voteForProposal(uint256)": {
        "notice": "Les lecteurs inscrits votent pour leurs propositions prfres."
      }
    },
    "notice": "Mise en oeuvre d'un systme de vote simple",
    "version": 1
  }
}