{
  "contractName": "Voting",
  "abi": [
    {
      "anonymous": false,
      "inputs": [
        {
          "indexed": true,
          "internalType": "address",
          "name": "previousOwner",
          "type": "address"
        },
        {
          "indexed": true,
          "internalType": "address",
          "name": "newOwner",
          "type": "address"
        }
      ],
      "name": "OwnershipTransferred",
      "type": "event"
    },
    {
      "anonymous": false,
      "inputs": [
        {
          "indexed": false,
          "internalType": "uint256",
          "name": "proposalId",
          "type": "uint256"
        }
      ],
      "name": "ProposalRegistered",
      "type": "event"
    },
    {
      "anonymous": false,
      "inputs": [
        {
          "indexed": false,
          "internalType": "address",
          "name": "voter",
          "type": "address"
        },
        {
          "indexed": false,
          "internalType": "uint256",
          "name": "proposalId",
          "type": "uint256"
        }
      ],
      "name": "Voted",
      "type": "event"
    },
    {
      "anonymous": false,
      "inputs": [
        {
          "indexed": false,
          "internalType": "address",
          "name": "voter",
          "type": "address"
        }
      ],
      "name": "VoterAdded",
      "type": "event"
    },
    {
      "anonymous": false,
      "inputs": [
        {
          "indexed": false,
          "internalType": "enum Voting.WorkflowStatus",
          "name": "previousStatus",
          "type": "uint8"
        },
        {
          "indexed": false,
          "internalType": "enum Voting.WorkflowStatus",
          "name": "newStatus",
          "type": "uint8"
        }
      ],
      "name": "WorkflowStatusChange",
      "type": "event"
    },
    {
      "inputs": [],
      "name": "owner",
      "outputs": [
        {
          "internalType": "address",
          "name": "",
          "type": "address"
        }
      ],
      "stateMutability": "view",
      "type": "function",
      "constant": true
    },
    {
      "inputs": [],
      "name": "renounceOwnership",
      "outputs": [],
      "stateMutability": "nonpayable",
      "type": "function"
    },
    {
      "inputs": [
        {
          "internalType": "address",
          "name": "newOwner",
          "type": "address"
        }
      ],
      "name": "transferOwnership",
      "outputs": [],
      "stateMutability": "nonpayable",
      "type": "function"
    },
    {
      "inputs": [],
      "name": "winningProposal",
      "outputs": [
        {
          "internalType": "string",
          "name": "description",
          "type": "string"
        },
        {
          "internalType": "uint256",
          "name": "voteCount",
          "type": "uint256"
        }
      ],
      "stateMutability": "view",
      "type": "function",
      "constant": true
    },
    {
      "inputs": [],
      "name": "resetVote",
      "outputs": [],
      "stateMutability": "nonpayable",
      "type": "function"
    },
    {
      "inputs": [
        {
          "internalType": "address",
          "name": "_address",
          "type": "address"
        }
      ],
      "name": "registerVoters",
      "outputs": [],
      "stateMutability": "nonpayable",
      "type": "function"
    },
    {
      "inputs": [],
      "name": "getVotersAdresses",
      "outputs": [
        {
          "internalType": "address[]",
          "name": "",
          "type": "address[]"
        }
      ],
      "stateMutability": "view",
      "type": "function",
      "constant": true
    },
    {
      "inputs": [],
      "name": "getVoter",
      "outputs": [
        {
          "components": [
            {
              "internalType": "bool",
              "name": "isRegistered",
              "type": "bool"
            },
            {
              "internalType": "bool",
              "name": "hasVoted",
              "type": "bool"
            },
            {
              "internalType": "uint256",
              "name": "votedProposalId",
              "type": "uint256"
            }
          ],
          "internalType": "struct Voting.Voter",
          "name": "",
          "type": "tuple"
        }
      ],
      "stateMutability": "view",
      "type": "function",
      "constant": true
    },
    {
      "inputs": [],
      "name": "startProposalsRegistration",
      "outputs": [],
      "stateMutability": "nonpayable",
      "type": "function"
    },
    {
      "inputs": [
        {
          "internalType": "string",
          "name": "proposalDescription",
          "type": "string"
        }
      ],
      "name": "registerProposal",
      "outputs": [],
      "stateMutability": "nonpayable",
      "type": "function"
    },
    {
      "inputs": [],
      "name": "getProposals",
      "outputs": [
        {
          "components": [
            {
              "internalType": "string",
              "name": "description",
              "type": "string"
            },
            {
              "internalType": "uint256",
              "name": "voteCount",
              "type": "uint256"
            }
          ],
          "internalType": "struct Voting.Proposal[]",
          "name": "",
          "type": "tuple[]"
        }
      ],
      "stateMutability": "view",
      "type": "function",
      "constant": true
    },
    {
      "inputs": [],
      "name": "stopProposalsRegistration",
      "outputs": [],
      "stateMutability": "nonpayable",
      "type": "function"
    },
    {
      "inputs": [],
      "name": "startVotingSession",
      "outputs": [],
      "stateMutability": "nonpayable",
      "type": "function"
    },
    {
      "inputs": [
        {
          "internalType": "uint256",
          "name": "_proposalId",
          "type": "uint256"
        }
      ],
      "name": "voteForProposal",
      "outputs": [],
      "stateMutability": "nonpayable",
      "type": "function"
    },
    {
      "inputs": [],
      "name": "stopVotingSession",
      "outputs": [],
      "stateMutability": "nonpayable",
      "type": "function"
    },
    {
      "inputs": [],
      "name": "countVotes",
      "outputs": [
        {
          "internalType": "string",
          "name": "",
          "type": "string"
        }
      ],
      "stateMutability": "nonpayable",
      "type": "function"
    },
    {
      "inputs": [
        {
          "internalType": "address",
          "name": "voterAddress",
          "type": "address"
        }
      ],
      "name": "getVote",
      "outputs": [
        {
          "internalType": "uint256",
          "name": "",
          "type": "uint256"
        }
      ],
      "stateMutability": "view",
      "type": "function",
      "constant": true
    },
    {
      "inputs": [],
      "name": "getCurrentWorkflowStatus",
      "outputs": [
        {
          "internalType": "enum Voting.WorkflowStatus",
          "name": "",
          "type": "uint8"
        }
      ],
      "stateMutability": "view",
      "type": "function",
      "constant": true
    }
  ],
  "bytecode": "0x608060405260008060146101000a81548160ff021916908360058111156200002357fe5b02179055503480156200003557600080fd5b50600062000051620000f5640100000000026401000000009004565b9050806000806101000a81548173ffffffffffffffffffffffffffffffffffffffff021916908373ffffffffffffffffffffffffffffffffffffffff1602179055508073ffffffffffffffffffffffffffffffffffffffff16600073ffffffffffffffffffffffffffffffffffffffff167f8be0079c531659141344cd1fd0a4f28419497f9722a3daafe3b4186f6b6457e060405160405180910390a350620000fd565b600033905090565b612be0806200010d6000396000f3fe608060405234801561001057600080fd5b5060043610610133576000357c0100000000000000000000000000000000000000000000000000000000900480638d337b81116100bf578063bd0434d41161008e578063bd0434d41461027d578063e09b8c791461029b578063ed8a1608146102a5578063ee74c678146102c1578063f2fde38b146102cb57610133565b80638d337b81146101f35780638da5cb5b14610223578063af7c41a014610241578063b647990a1461025f57610133565b8063329a8cfa11610106578063329a8cfa1461019857806353302887146101a2578063609ff1bd146101ac57806362564c48146101cb578063715018a6146101e957610133565b8063045c6ce01461013857806317a0ad8e146101545780632b37f53c1461015e5780632f95355b1461017c575b600080fd5b610152600480360381019061014d9190611d37565b6102e7565b005b61015c61057a565b005b610166610684565b604051610173919061294b565b60405180910390f35b61019660048036038101906101919190611cf6565b61071b565b005b6101a0610903565b005b6101aa610ac9565b005b6101b4610bd3565b6040516101c29291906126fb565b60405180910390f35b6101d3610c7d565b6040516101e09190612673565b60405180910390f35b6101f1610d88565b005b61020d60048036038101906102089190611ccd565b610edd565b60405161021a9190612966565b60405180910390f35b61022b61103d565b604051610238919061260d565b60405180910390f35b610249611066565b6040516102569190612695565b60405180910390f35b61026761107c565b60405161027491906126d9565b60405180910390f35b610285611229565b6040516102929190612651565b60405180910390f35b6102a36112b7565b005b6102bf60048036038101906102ba9190611ccd565b611406565b005b6102c96116f1565b005b6102e560048036038101906102e09190611ccd565b6117fb565b005b600560003373ffffffffffffffffffffffffffffffffffffffff1673ffffffffffffffffffffffffffffffffffffffff16815260200190815260200160002060000160009054906101000a900460ff16610376576040517f08c379a000000000000000000000000000000000000000000000000000000000815260040161036d906127eb565b60405180910390fd5b600560003373ffffffffffffffffffffffffffffffffffffffff1673ffffffffffffffffffffffffffffffffffffffff16815260200190815260200160002060000160019054906101000a900460ff1615610406576040517f08c379a00000000000000000000000000000000000000000000000000000000081526004016103fd9061286b565b60405180910390fd5b6003600581111561041357fe5b600060149054906101000a900460ff16600581111561042e57fe5b1461046e576040517f08c379a00000000000000000000000000000000000000000000000000000000081526004016104659061282b565b60405180910390fd5b6001600560003373ffffffffffffffffffffffffffffffffffffffff1673ffffffffffffffffffffffffffffffffffffffff16815260200190815260200160002060000160016101000a81548160ff02191690831515021790555080600560003373ffffffffffffffffffffffffffffffffffffffff1673ffffffffffffffffffffffffffffffffffffffff168152602001908152602001600020600101819055506003818154811061051d57fe5b9060005260206000209060020201600101600081548092919060010191905055507f4d99b957a2bc29a30ebd96a7be8e68fe50a3c701db28a91436490b7d53870ca4338260405161056f929190612628565b60405180910390a150565b6105826119bf565b73ffffffffffffffffffffffffffffffffffffffff166000809054906101000a900473ffffffffffffffffffffffffffffffffffffffff1673ffffffffffffffffffffffffffffffffffffffff1614610610576040517f08c379a00000000000000000000000000000000000000000000000000000000081526004016106079061290b565b60405180910390fd5b6003600581111561061d57fe5b600060149054906101000a900460ff16600581111561063857fe5b14610678576040517f08c379a000000000000000000000000000000000000000000000000000000000815260040161066f906128ab565b60405180910390fd5b61068260046119c7565b565b61068c611a3a565b600560003373ffffffffffffffffffffffffffffffffffffffff1673ffffffffffffffffffffffffffffffffffffffff1681526020019081526020016000206040518060600160405290816000820160009054906101000a900460ff161515151581526020016000820160019054906101000a900460ff16151515158152602001600182015481525050905090565b606460038054905010610763576040517f08c379a000000000000000000000000000000000000000000000000000000000815260040161075a906128eb565b60405180910390fd5b600560003373ffffffffffffffffffffffffffffffffffffffff1673ffffffffffffffffffffffffffffffffffffffff16815260200190815260200160002060000160009054906101000a900460ff166107f2576040517f08c379a00000000000000000000000000000000000000000000000000000000081526004016107e9906127eb565b60405180910390fd5b600160058111156107ff57fe5b600060149054906101000a900460ff16600581111561081a57fe5b1461085a576040517f08c379a00000000000000000000000000000000000000000000000000000000081526004016108519061274b565b60405180910390fd5b600360405180604001604052808381526020016000815250908060018154018082558091505060019003906000526020600020906002020160009091909190915060008201518160000190805190602001906108b7929190611a5f565b506020820151816001015550507f92e393e9b54e2f801d3ea4beb0c5e71a21cc34a5d34b77d0fb8a3aa1650dc18f6003805490506040516108f89190612966565b60405180910390a150565b61090b6119bf565b73ffffffffffffffffffffffffffffffffffffffff166000809054906101000a900473ffffffffffffffffffffffffffffffffffffffff1673ffffffffffffffffffffffffffffffffffffffff1614610999576040517f08c379a00000000000000000000000000000000000000000000000000000000081526004016109909061290b565b60405180910390fd5b60008060146101000a81548160ff021916908360058111156109b757fe5b02179055506001600080820160006109cf9190611adf565b60018201600090555050600360006109e79190611b27565b60008090505b600480549050811015610ab0576005600060048381548110610a0b57fe5b9060005260206000200160009054906101000a900473ffffffffffffffffffffffffffffffffffffffff1673ffffffffffffffffffffffffffffffffffffffff1673ffffffffffffffffffffffffffffffffffffffff168152602001908152602001600020600080820160006101000a81549060ff02191690556000820160016101000a81549060ff02191690556001820160009055505080806001019150506109ed565b60046000610abe9190611b4b565b600060068190555050565b610ad16119bf565b73ffffffffffffffffffffffffffffffffffffffff166000809054906101000a900473ffffffffffffffffffffffffffffffffffffffff1673ffffffffffffffffffffffffffffffffffffffff1614610b5f576040517f08c379a0000000000000000000000000000000000000000000000000000000008152600401610b569061290b565b60405180910390fd5b60016005811115610b6c57fe5b600060149054906101000a900460ff166005811115610b8757fe5b14610bc7576040517f08c379a0000000000000000000000000000000000000000000000000000000008152600401610bbe9061292b565b60405180910390fd5b610bd160026119c7565b565b6001806000018054600181600116156101000203166002900480601f016020809104026020016040519081016040528092919081815260200182805460018160011615610100020316600290048015610c6d5780601f10610c4257610100808354040283529160200191610c6d565b820191906000526020600020905b815481529060010190602001808311610c5057829003601f168201915b5050505050908060010154905082565b60606003805480602002602001604051908101604052809291908181526020016000905b82821015610d7f5783829060005260206000209060020201604051806040016040529081600082018054600181600116156101000203166002900480601f016020809104026020016040519081016040528092919081815260200182805460018160011615610100020316600290048015610d5d5780601f10610d3257610100808354040283529160200191610d5d565b820191906000526020600020905b815481529060010190602001808311610d4057829003601f168201915b5050505050815260200160018201548152505081526020019060010190610ca1565b50505050905090565b610d906119bf565b73ffffffffffffffffffffffffffffffffffffffff166000809054906101000a900473ffffffffffffffffffffffffffffffffffffffff1673ffffffffffffffffffffffffffffffffffffffff1614610e1e576040517f08c379a0000000000000000000000000000000000000000000000000000000008152600401610e159061290b565b60405180910390fd5b600073ffffffffffffffffffffffffffffffffffffffff166000809054906101000a900473ffffffffffffffffffffffffffffffffffffffff1673ffffffffffffffffffffffffffffffffffffffff167f8be0079c531659141344cd1fd0a4f28419497f9722a3daafe3b4186f6b6457e060405160405180910390a360008060006101000a81548173ffffffffffffffffffffffffffffffffffffffff021916908373ffffffffffffffffffffffffffffffffffffffff160217905550565b6000600560003373ffffffffffffffffffffffffffffffffffffffff1673ffffffffffffffffffffffffffffffffffffffff16815260200190815260200160002060000160009054906101000a900460ff16610f6e576040517f08c379a0000000000000000000000000000000000000000000000000000000008152600401610f659061284b565b60405180910390fd5b6000600560008473ffffffffffffffffffffffffffffffffffffffff1673ffffffffffffffffffffffffffffffffffffffff1681526020019081526020016000206001015411610ff3576040517f08c379a0000000000000000000000000000000000000000000000000000000008152600401610fea906128cb565b60405180910390fd5b600560003373ffffffffffffffffffffffffffffffffffffffff1673ffffffffffffffffffffffffffffffffffffffff168152602001908152602001600020600101549050919050565b60008060009054906101000a900473ffffffffffffffffffffffffffffffffffffffff16905090565b60008060149054906101000a900460ff16905090565b60606110866119bf565b73ffffffffffffffffffffffffffffffffffffffff166000809054906101000a900473ffffffffffffffffffffffffffffffffffffffff1673ffffffffffffffffffffffffffffffffffffffff1614611114576040517f08c379a000000000000000000000000000000000000000000000000000000000815260040161110b9061290b565b60405180910390fd5b6004600581111561112157fe5b600060149054906101000a900460ff16600581111561113c57fe5b1461117c576040517f08c379a00000000000000000000000000000000000000000000000000000000081526004016111739061280b565b60405180910390fd5b600080600090505b6003805490508110156111c857816003828154811061119f57fe5b90600052602060002090600202016001015411156111bb578091505b8080600101915050611184565b50600381815481106111d657fe5b906000526020600020906002020160016000820181600001908054600181600116156101000203166002900461120d929190611b6c565b506001820154816001015590505061122560056119c7565b5090565b606060048054806020026020016040519081016040528092919081815260200182805480156112ad57602002820191906000526020600020905b8160009054906101000a900473ffffffffffffffffffffffffffffffffffffffff1673ffffffffffffffffffffffffffffffffffffffff1681526020019060010190808311611263575b5050505050905090565b6112bf6119bf565b73ffffffffffffffffffffffffffffffffffffffff166000809054906101000a900473ffffffffffffffffffffffffffffffffffffffff1673ffffffffffffffffffffffffffffffffffffffff161461134d576040517f08c379a00000000000000000000000000000000000000000000000000000000081526004016113449061290b565b60405180910390fd5b6000600581111561135a57fe5b600060149054906101000a900460ff16600581111561137557fe5b146113b5576040517f08c379a00000000000000000000000000000000000000000000000000000000081526004016113ac906127cb565b60405180910390fd5b6002600654116113fa576040517f08c379a00000000000000000000000000000000000000000000000000000000081526004016113f19061288b565b60405180910390fd5b61140460016119c7565b565b61140e6119bf565b73ffffffffffffffffffffffffffffffffffffffff166000809054906101000a900473ffffffffffffffffffffffffffffffffffffffff1673ffffffffffffffffffffffffffffffffffffffff161461149c576040517f08c379a00000000000000000000000000000000000000000000000000000000081526004016114939061290b565b60405180910390fd5b600560008273ffffffffffffffffffffffffffffffffffffffff1673ffffffffffffffffffffffffffffffffffffffff16815260200190815260200160002060000160009054906101000a900460ff161561152c576040517f08c379a00000000000000000000000000000000000000000000000000000000081526004016115239061272b565b60405180910390fd5b6000600581111561153957fe5b600060149054906101000a900460ff16600581111561155457fe5b14611594576040517f08c379a000000000000000000000000000000000000000000000000000000000815260040161158b9061276b565b60405180910390fd5b6004819080600181540180825580915050600190039060005260206000200160009091909190916101000a81548173ffffffffffffffffffffffffffffffffffffffff021916908373ffffffffffffffffffffffffffffffffffffffff16021790555060405180606001604052806001151581526020016000151581526020016000815250600560008373ffffffffffffffffffffffffffffffffffffffff1673ffffffffffffffffffffffffffffffffffffffff16815260200190815260200160002060008201518160000160006101000a81548160ff02191690831515021790555060208201518160000160016101000a81548160ff021916908315150217905550604082015181600101559050506006600081548092919060010191905055507fa636f4a11e2d3ba7f89d042ecb0a6b886716e98cd49d8fd876ee0f73bced42b8816040516116e6919061260d565b60405180910390a150565b6116f96119bf565b73ffffffffffffffffffffffffffffffffffffffff166000809054906101000a900473ffffffffffffffffffffffffffffffffffffffff1673ffffffffffffffffffffffffffffffffffffffff1614611787576040517f08c379a000000000000000000000000000000000000000000000000000000000815260040161177e9061290b565b60405180910390fd5b6002600581111561179457fe5b600060149054906101000a900460ff1660058111156117af57fe5b146117ef576040517f08c379a00000000000000000000000000000000000000000000000000000000081526004016117e6906127ab565b60405180910390fd5b6117f960036119c7565b565b6118036119bf565b73ffffffffffffffffffffffffffffffffffffffff166000809054906101000a900473ffffffffffffffffffffffffffffffffffffffff1673ffffffffffffffffffffffffffffffffffffffff1614611891576040517f08c379a00000000000000000000000000000000000000000000000000000000081526004016118889061290b565b60405180910390fd5b600073ffffffffffffffffffffffffffffffffffffffff168173ffffffffffffffffffffffffffffffffffffffff161415611901576040517f08c379a00000000000000000000000000000000000000000000000000000000081526004016118f89061278b565b60405180910390fd5b8073ffffffffffffffffffffffffffffffffffffffff166000809054906101000a900473ffffffffffffffffffffffffffffffffffffffff1673ffffffffffffffffffffffffffffffffffffffff167f8be0079c531659141344cd1fd0a4f28419497f9722a3daafe3b4186f6b6457e060405160405180910390a3806000806101000a81548173ffffffffffffffffffffffffffffffffffffffff021916908373ffffffffffffffffffffffffffffffffffffffff16021790555050565b600033905090565b60008060149054906101000a900460ff16905081600060146101000a81548160ff021916908360058111156119f857fe5b02179055507f0a97a4ee45751e2abf3e4fc8946939630b11b371ea8ae39ccdc3056e98f5cc3f8183604051611a2e9291906126b0565b60405180910390a15050565b6040518060600160405280600015158152602001600015158152602001600081525090565b828054600181600116156101000203166002900490600052602060002090601f016020900481019282601f10611aa057805160ff1916838001178555611ace565b82800160010185558215611ace579182015b82811115611acd578251825591602001919060010190611ab2565b5b509050611adb9190611bf3565b5090565b50805460018160011615610100020316600290046000825580601f10611b055750611b24565b601f016020900490600052602060002090810190611b239190611bf3565b5b50565b5080546000825560020290600052602060002090810190611b489190611c18565b50565b5080546000825590600052602060002090810190611b699190611bf3565b50565b828054600181600116156101000203166002900490600052602060002090601f016020900481019282601f10611ba55780548555611be2565b82800160010185558215611be257600052602060002091601f016020900482015b82811115611be1578254825591600101919060010190611bc6565b5b509050611bef9190611bf3565b5090565b611c1591905b80821115611c11576000816000905550600101611bf9565b5090565b90565b611c4c91905b80821115611c485760008082016000611c379190611adf565b600182016000905550600201611c1e565b5090565b90565b600081359050611c5e81612b7c565b92915050565b600082601f830112611c7557600080fd5b8135611c88611c83826129ae565b612981565b91508082526020830160208301858383011115611ca457600080fd5b611caf838284612b1c565b50505092915050565b600081359050611cc781612b93565b92915050565b600060208284031215611cdf57600080fd5b6000611ced84828501611c4f565b91505092915050565b600060208284031215611d0857600080fd5b600082013567ffffffffffffffff811115611d2257600080fd5b611d2e84828501611c64565b91505092915050565b600060208284031215611d4957600080fd5b6000611d5784828501611cb8565b91505092915050565b6000611d6c8383611d9b565b60208301905092915050565b6000611d848383612570565b905092915050565b611d9581612ad4565b82525050565b611da481612a79565b82525050565b611db381612a79565b82525050565b6000611dc4826129fa565b611dce8185612a35565b9350611dd9836129da565b8060005b83811015611e0a578151611df18882611d60565b9750611dfc83612a1b565b925050600181019050611ddd565b5085935050505092915050565b6000611e2282612a05565b611e2c8185612a46565b935083602082028501611e3e856129ea565b8060005b85811015611e7a5784840389528151611e5b8582611d78565b9450611e6683612a28565b925060208a01995050600181019050611e42565b50829750879550505050505092915050565b611e9581612a8b565b82525050565b611ea481612ae6565b82525050565b6000611eb582612a10565b611ebf8185612a57565b9350611ecf818560208601612b2b565b611ed881612b5e565b840191505092915050565b6000611eee82612a10565b611ef88185612a68565b9350611f08818560208601612b2b565b611f1181612b5e565b840191505092915050565b6000611f29602283612a68565b91507f546865206164647265737320697320616c72656164792072656769737465726560008301527f64210000000000000000000000000000000000000000000000000000000000006020830152604082019050919050565b6000611f8f603283612a68565b91507f50726f706f73616c7320526567697374726174696f6e20686173206e6f74207360008301527f746172746564206f7220697320656e64656400000000000000000000000000006020830152604082019050919050565b6000611ff5601b83612a68565b91507f546f6f206c61746520746f20726567697374657220766f7465727300000000006000830152602082019050919050565b6000612035602683612a68565b91507f4f776e61626c653a206e6577206f776e657220697320746865207a65726f206160008301527f64647265737300000000000000000000000000000000000000000000000000006020830152604082019050919050565b600061209b604e83612a68565b91507f596f752063616e206f6e6c7920737461727420566f74696e672053657373696f60008301527f6e206f6e63652050726f706f73616c7320526567697374726174696f6e20686160208301527f73206265656e2073746f707065640000000000000000000000000000000000006040830152606082019050919050565b6000612127602e83612a68565b91507f596f752063616e206f6e6c792073746172742050726f706f73616c732052656760008301527f697374726174696f6e206f6e63650000000000000000000000000000000000006020830152604082019050919050565b600061218d602883612a68565b91507f536f72727920796f752063616e277420706172746963697061746520746f207460008301527f68697320766f74650000000000000000000000000000000000000000000000006020830152604082019050919050565b60006121f3602483612a68565b91507f596f752073686f756c642073746f7020566f74696e672053657373696f6e206660008301527f69727374000000000000000000000000000000000000000000000000000000006020830152604082019050919050565b6000612259602a83612a68565b91507f566f74696e672053657373696f6e20686173206e6f742073746172746564206f60008301527f7220697320656e646564000000000000000000000000000000000000000000006020830152604082019050919050565b60006122bf601983612a68565b91507f536f72727920796f75277265206e6f74206120766f74657227000000000000006000830152602082019050919050565b60006122ff602483612a68565b91507f536f72727920796f752063616e6e6f7420766f7465206d6f7265207468616e2060008301527f6f6e6365000000000000000000000000000000000000000000000000000000006020830152604082019050919050565b6000612365603283612a68565b91507f596f752073686f756c6420726567697374657220736f6d6520766f746572732060008301527f666972737420286174206c6561737420332900000000000000000000000000006020830152604082019050919050565b60006123cb602583612a68565b91507f596f752063616e206f6e6c792073746f7020566f74696e672053657373696f6e60008301527f206f6e63650000000000000000000000000000000000000000000000000000006020830152604082019050919050565b6000612431602083612a68565b91507f5468697320766f74657220686173206e6f7420616c726561647920766f7465646000830152602082019050919050565b6000612471602e83612a68565b91507f536f7272792077652063616e6e6f7420616363657074206d6f7265207468616e60008301527f203130302070726f706f73616c730000000000000000000000000000000000006020830152604082019050919050565b60006124d7602083612a68565b91507f4f776e61626c653a2063616c6c6572206973206e6f7420746865206f776e65726000830152602082019050919050565b6000612517602d83612a68565b91507f596f752063616e206f6e6c792073746f702050726f706f73616c73205265676960008301527f7374726174696f6e206f6e6365000000000000000000000000000000000000006020830152604082019050919050565b6000604083016000830151848203600086015261258d8282611eaa565b91505060208301516125a260208601826125ef565b508091505092915050565b6060820160008201516125c36000850182611e8c565b5060208201516125d66020850182611e8c565b5060408201516125e960408501826125ef565b50505050565b6125f881612aca565b82525050565b61260781612aca565b82525050565b60006020820190506126226000830184611daa565b92915050565b600060408201905061263d6000830185611d8c565b61264a60208301846125fe565b9392505050565b6000602082019050818103600083015261266b8184611db9565b905092915050565b6000602082019050818103600083015261268d8184611e17565b905092915050565b60006020820190506126aa6000830184611e9b565b92915050565b60006040820190506126c56000830185611e9b565b6126d26020830184611e9b565b9392505050565b600060208201905081810360008301526126f38184611ee3565b905092915050565b600060408201905081810360008301526127158185611ee3565b905061272460208301846125fe565b9392505050565b6000602082019050818103600083015261274481611f1c565b9050919050565b6000602082019050818103600083015261276481611f82565b9050919050565b6000602082019050818103600083015261278481611fe8565b9050919050565b600060208201905081810360008301526127a481612028565b9050919050565b600060208201905081810360008301526127c48161208e565b9050919050565b600060208201905081810360008301526127e48161211a565b9050919050565b6000602082019050818103600083015261280481612180565b9050919050565b60006020820190508181036000830152612824816121e6565b9050919050565b600060208201905081810360008301526128448161224c565b9050919050565b60006020820190508181036000830152612864816122b2565b9050919050565b60006020820190508181036000830152612884816122f2565b9050919050565b600060208201905081810360008301526128a481612358565b9050919050565b600060208201905081810360008301526128c4816123be565b9050919050565b600060208201905081810360008301526128e481612424565b9050919050565b6000602082019050818103600083015261290481612464565b9050919050565b60006020820190508181036000830152612924816124ca565b9050919050565b600060208201905081810360008301526129448161250a565b9050919050565b600060608201905061296060008301846125ad565b92915050565b600060208201905061297b60008301846125fe565b92915050565b6000604051905081810181811067ffffffffffffffff821117156129a457600080fd5b8060405250919050565b600067ffffffffffffffff8211156129c557600080fd5b601f19601f8301169050602081019050919050565b6000819050602082019050919050565b6000819050602082019050919050565b600081519050919050565b600081519050919050565b600081519050919050565b6000602082019050919050565b6000602082019050919050565b600082825260208201905092915050565b600082825260208201905092915050565b600082825260208201905092915050565b600082825260208201905092915050565b6000612a8482612aaa565b9050919050565b60008115159050919050565b6000819050612aa582612b6f565b919050565b600073ffffffffffffffffffffffffffffffffffffffff82169050919050565b6000819050919050565b6000612adf82612af8565b9050919050565b6000612af182612a97565b9050919050565b6000612b0382612b0a565b9050919050565b6000612b1582612aaa565b9050919050565b82818337600083830152505050565b60005b83811015612b49578082015181840152602081019050612b2e565b83811115612b58576000848401525b50505050565b6000601f19601f8301169050919050565b60068110612b7957fe5b50565b612b8581612a79565b8114612b9057600080fd5b50565b612b9c81612aca565b8114612ba757600080fd5b5056fea26469706673582212206d1e79554e422835ce24a5522521f89bc209f5b6991dc9f0c0adec126a727d6964736f6c634300060b0033",
  "immutableReferences": {},
  "source": "// SPDX-License-Identifier: MIT\r\npragma solidity 0.6.11;\r\npragma experimental ABIEncoderV2;\r\n\r\nimport \"@OpenZeppelin/contracts/access/Ownable.sol\";\r\n\r\n/// @title Formation Alyra \"Dveloppeur Blockchain\" - Dfi - Systme de vote\r\n/// @author Jrme Gauthier\r\n/// @notice Mise en oeuvre d'un systme de vote simple\r\n/// @dev Par rapport  l'nonc initial j'ai simplement ajout la fonction resetVote()\r\n/// accessible par le owner du contract seulement\r\ncontract Voting is Ownable {\r\n\r\n    struct Voter {\r\n        bool isRegistered;\r\n        bool hasVoted;\r\n        uint votedProposalId;\r\n    }\r\n\r\n    struct Proposal {\r\n        string description;\r\n        uint voteCount;\r\n    }\r\n    \r\n    enum WorkflowStatus {\r\n        RegisteringVoters,\r\n        ProposalsRegistrationStarted,\r\n        ProposalsRegistrationEnded,\r\n        VotingSessionStarted,\r\n        VotingSessionEnded,\r\n        VotesTallied\r\n    }\r\n    \r\n    WorkflowStatus currentWorkflowStatus = WorkflowStatus.RegisteringVoters;\r\n    Proposal public winningProposal; // Tout le monde peut vrifier la proposition gagnante\r\n    Proposal[] private proposals; // we will use votedProposalId as key \r\n    address[] private votersAddresses;\r\n    mapping(address => Voter) voters;\r\n    uint numberOfVoters;\r\n    \r\n    // the following events are replaced with WorkflowStatusChange, enough\r\n    // event ProposalsRegistrationStarted(); // ok used in startProposalsRegistration function\r\n    // event ProposalsRegistrationEnded(); // ok used in stopProposalsRegistration function\r\n    // event VotingSessionStarted(); // ok used in startVotingSession function\r\n    // event VotingSessionEnded(); // ok used in stopVotingSession function\r\n    // event VotesTallied(); // ok used in countVotes function\r\n    event VoterAdded (address voter); // ok used in registerVoters function\r\n    event ProposalRegistered(uint proposalId); // ok used in registerProposal function \r\n    event Voted (address voter, uint proposalId); // ok used in voteForProposal function\r\n    event WorkflowStatusChange(WorkflowStatus previousStatus, WorkflowStatus newStatus);// used in setNewWorkflowStatus\r\n\r\n    function resetVote () public onlyOwner {\r\n        currentWorkflowStatus = WorkflowStatus.RegisteringVoters;\r\n        delete winningProposal;\r\n        delete proposals;\r\n        // to reset a mapping we need to delete its values, we cannot use the direct delete command\r\n        uint counter;\r\n        for (counter = 0; counter < votersAddresses.length; counter++) {\r\n           delete voters[votersAddresses[counter]];\r\n        }        \r\n        delete votersAddresses;\r\n        numberOfVoters = 0;\r\n    }\r\n    \r\n    /// @notice L'administrateur du vote enregistre une liste blanche d'lecteurs identifis par leur adresse Ethereum.\r\n    /// @dev onlyOwner pour que seul le owner du contract puisse enregistrer des lecteurs\r\n    /// @param _address l'adresse de l'lecteur\r\n    function registerVoters(address _address) public onlyOwner {\r\n        require(!voters[_address].isRegistered, \"The address is already registered!\");\r\n        require(currentWorkflowStatus == WorkflowStatus.RegisteringVoters, \"Too late to register voters\");\r\n        votersAddresses.push(_address);\r\n        voters[_address] = Voter(true, false, 0);\r\n        numberOfVoters++;\r\n        emit VoterAdded(_address);\r\n    }\r\n    \r\n    /// @notice Cette fonction permettra  la Dapp de lister visuellement tous les votants dclars\r\n    function getVotersAdresses() public view returns(address[] memory){\r\n        return votersAddresses;\r\n    }\r\n    \r\n    /// @notice Cette fonction permettra  la Dapp de savoir si l'adresse est enregistre et si elle a dj vot\r\n    function getVoter() public view returns(Voter memory) {\r\n        return voters[msg.sender];\r\n    }\r\n    \r\n    /// @notice L'administrateur du vote commence la session d'enregistrement de la proposition.\r\n    function startProposalsRegistration() public onlyOwner {\r\n        require(currentWorkflowStatus == WorkflowStatus.RegisteringVoters,\r\n                \"You can only start Proposals Registration once\");\r\n        require(numberOfVoters > 2, \"You should register some voters first (at least 3)\");\r\n        setNewWorkflowStatus(WorkflowStatus.ProposalsRegistrationStarted);\r\n        // emit ProposalsRegistrationStarted();\r\n    }\r\n\r\n    /// @notice Les lecteurs inscrits sont autoriss  enregistrer leurs propositions\r\n    /// pendant que la session d'enregistrement est active.\r\n    function registerProposal(string memory proposalDescription) public {\r\n        require(proposals.length<100, \"Sorry we cannot accept more than 100 proposals\");\r\n        require(voters[msg.sender].isRegistered, \"Sorry you can't participate to this vote\");\r\n        require(currentWorkflowStatus == WorkflowStatus.ProposalsRegistrationStarted,\r\n                \"Proposals Registration has not started or is ended\");\r\n        proposals.push(Proposal(proposalDescription, 0));\r\n        emit ProposalRegistered(proposals.length);\r\n    }\r\n\r\n    /// @notice Cette fonction permettra  la Dapp de lister visuellement toutes les propositions effectues\r\n    function getProposals() public view returns(Proposal[] memory){\r\n        return proposals;\r\n    }\r\n\r\n    /// @notice L'administrateur de vote met fin  la session d'enregistrement des propositions.\r\n    function stopProposalsRegistration() public onlyOwner {\r\n        require(currentWorkflowStatus == WorkflowStatus.ProposalsRegistrationStarted,\r\n                \"You can only stop Proposals Registration once\");\r\n        setNewWorkflowStatus(WorkflowStatus.ProposalsRegistrationEnded);\r\n        // emit ProposalsRegistrationEnded();\r\n    }\r\n    \r\n    /// @notice L'administrateur du vote commence la session de vote.\r\n    function startVotingSession() public onlyOwner {\r\n        require(currentWorkflowStatus == WorkflowStatus.ProposalsRegistrationEnded,\r\n                \"You can only start Voting Session once Proposals Registration has been stopped\");\r\n        setNewWorkflowStatus(WorkflowStatus.VotingSessionStarted);\r\n        // emit VotingSessionStarted();\r\n    }\r\n\r\n    /// @notice Les lecteurs inscrits votent pour leurs propositions prfres.\r\n    function voteForProposal(uint _proposalId) public {\r\n        require(voters[msg.sender].isRegistered, \"Sorry you can't participate to this vote\");\r\n        require(!voters[msg.sender].hasVoted, \"Sorry you cannot vote more than once\");\r\n        require(currentWorkflowStatus == WorkflowStatus.VotingSessionStarted,\r\n                \"Voting Session has not started or is ended\");\r\n        voters[msg.sender].hasVoted = true;\r\n        voters[msg.sender].votedProposalId = _proposalId;\r\n        proposals[_proposalId].voteCount++; // increment the vote count for this proposal id\r\n        emit Voted(msg.sender, _proposalId);\r\n    }\r\n\r\n    /// @notice L'administrateur du vote met fin  la session de vote.\r\n    function stopVotingSession() public onlyOwner {\r\n        require(currentWorkflowStatus == WorkflowStatus.VotingSessionStarted, \"You can only stop Voting Session once\");\r\n        setNewWorkflowStatus(WorkflowStatus.VotingSessionEnded);\r\n        // emit VotingSessionEnded();\r\n    }\r\n\r\n    /// @notice L'administrateur du vote comptabilise les votes.\r\n    function countVotes() public onlyOwner returns (string memory) {\r\n        require(currentWorkflowStatus == WorkflowStatus.VotingSessionEnded, \"You should stop Voting Session first\");\r\n        uint winningProposalId;\r\n        for (uint currentProposalId = 0; currentProposalId < proposals.length; currentProposalId++) {\r\n            if (proposals[currentProposalId].voteCount > winningProposalId) {\r\n                winningProposalId = currentProposalId;\r\n            }\r\n        }        \r\n        winningProposal = proposals[winningProposalId];\r\n        setNewWorkflowStatus(WorkflowStatus.VotesTallied);\r\n        // emit VotesTallied();\r\n    }\r\n    \r\n    /// @notice Le vote n'est pas secret ; chaque lecteur peut voir les votes des autres.\r\n    function getVote(address voterAddress) public view returns (uint) {\r\n        require(voters[msg.sender].isRegistered, \"Sorry you're not a voter'\");\r\n        require(voters[voterAddress].votedProposalId > 0, \"This voter has not already voted\");\r\n        return  voters[msg.sender].votedProposalId;\r\n    }\r\n\r\n    /// @notice passage d'un statut  l'autre\r\n    function setNewWorkflowStatus (WorkflowStatus newWorkflowStatus) private {\r\n        WorkflowStatus previousWorkflowStatus = currentWorkflowStatus;\r\n        currentWorkflowStatus = newWorkflowStatus;\r\n        emit WorkflowStatusChange(previousWorkflowStatus, newWorkflowStatus);\r\n    }\r\n    \r\n    /// @notice Renvoit le statut courant du workflow\r\n    function getCurrentWorkflowStatus() public view returns (WorkflowStatus) {\r\n        return  currentWorkflowStatus;\r\n    }\r\n}",
  "sourcePath": "C:/Appli.crypto/Alyra-Challenges/system-de-vote/contracts/voting.sol",
  "compiler": {
    "name": "solc",
    "version": "0.6.11+commit.5ef660b1.Emscripten.clang"
  },
  "schemaVersion": "3.4.1",
  "updatedAt": "2021-07-08T05:42:54.666Z",
  "networkType": "ethereum",
  "devdoc": {
    "author": "Jrme Gauthier",
    "details": "Par rapport  l'nonc initial j'ai simplement ajout la fonction resetVote() accessible par le owner du contract seulement",
    "kind": "dev",
    "methods": {
      "owner()": {
        "details": "Returns the address of the current owner."
      },
      "registerVoters(address)": {
        "details": "onlyOwner pour que seul le owner du contract puisse enregistrer des lecteurs",
        "params": {
          "_address": "l'adresse de l'lecteur"
        }
      },
      "renounceOwnership()": {
        "details": "Leaves the contract without owner. It will not be possible to call `onlyOwner` functions anymore. Can only be called by the current owner. NOTE: Renouncing ownership will leave the contract without an owner, thereby removing any functionality that is only available to the owner."
      },
      "transferOwnership(address)": {
        "details": "Transfers ownership of the contract to a new account (`newOwner`). Can only be called by the current owner."
      }
    },
    "title": "Formation Alyra \"Dveloppeur Blockchain\" - Dfi - Systme de vote",
    "version": 1
  },
  "userdoc": {
    "kind": "user",
    "methods": {
      "countVotes()": {
        "notice": "L'administrateur du vote comptabilise les votes."
      },
      "getCurrentWorkflowStatus()": {
        "notice": "Renvoit le statut courant du workflow"
      },
      "getProposals()": {
        "notice": "Cette fonction permettra  la Dapp de lister visuellement toutes les propositions effectues"
      },
      "getVote(address)": {
        "notice": "Le vote n'est pas secret ; chaque lecteur peut voir les votes des autres."
      },
      "getVoter()": {
        "notice": "Cette fonction permettra  la Dapp de savoir si l'adresse est enregistre et si elle a dj vot"
      },
      "getVotersAdresses()": {
        "notice": "Cette fonction permettra  la Dapp de lister visuellement tous les votants dclars"
      },
      "registerProposal(string)": {
        "notice": "Les lecteurs inscrits sont autoriss  enregistrer leurs propositions pendant que la session d'enregistrement est active."
      },
      "registerVoters(address)": {
        "notice": "L'administrateur du vote enregistre une liste blanche d'lecteurs identifis par leur adresse Ethereum."
      },
      "startProposalsRegistration()": {
        "notice": "L'administrateur du vote commence la session d'enregistrement de la proposition."
      },
      "startVotingSession()": {
        "notice": "L'administrateur du vote commence la session de vote."
      },
      "stopProposalsRegistration()": {
        "notice": "L'administrateur de vote met fin  la session d'enregistrement des propositions."
      },
      "stopVotingSession()": {
        "notice": "L'administrateur du vote met fin  la session de vote."
      },
      "voteForProposal(uint256)": {
        "notice": "Les lecteurs inscrits votent pour leurs propositions prfres."
      }
    },
    "notice": "Mise en oeuvre d'un systme de vote simple",
    "version": 1
  }
}